:020000040000FA
:030000000200D724
:10008300020F5C00000080FBE49002007807790215
:100093008002F0A3D8FCD9FA7A067B039001077893
:1000A300F679018015E493A3AD82AE838A828B83B4
:1000B300F0A3AA82AB838D828E83D8E9D9E77582B8
:1000C300D175832174001200E975828675830074EB
:1000D300001200E975D0007581BF7510007511021B
:1000E300759F0002008BC09FF59FE473D09F22D0C1
:1000F30083D082C09FE493C0E0740193C0E0740294
:1001030093F59F22FF0000000000000000000000A4
:100113007B545950453D30323130317D0000000071
:1001230000000000000000000000000000000000CC
:1001330000000000000000000000007B4D41433D33
:1001430000253032583A253032583A253032583A61
:10015300253032583A253032583A253032583A252C
:100163003032583A25303258007B48756D696469DE
:1001730074793D25752C2054656D703D25757D0082
:10018300000000000000000000000000000000006C
:100193000000000000000000000000000000034118
:1001A30014000000303132333435363738394142A8
:1001B3004344454600286E756C6C20706F696E74FD
:1001C300657229003031323334353637383961625C
:1001D30063646566003F3F3F000000807F0000804E
:1001E3003F00000000F9021550B743BA5100002048
:1001F3004100E7DB2E0000A0401200F2152400129C
:1002030000F2CD24001200F22525001200F252263E
:10021300001200F2E526001200F28127001200F21C
:10022300112C001200F2702B001200F2912B00121D
:1002330000F2072C001200F20C2C001200F21C2B0F
:10024300001200F2492B001200F2EA28001200F219
:100253001629001200F22C29001200F24429001280
:1002630000F25C29001200F28629001200F2AB2989
:10027300001200F2BC29001200F2C529001200F29C
:10028300CE29001200F2E329001200F2F82900122D
:1002930000F2192A001200F22C2A001200F295270C
:1002A300001200F20220001200F24A20001200F2B3
:1002B3003721001200F22422001200F2362200122B
:1002C30000F24322001200F25C22001200F26722C5
:1002D300001200F29022001200F2CC22001200F26F
:1002E3000A23001200F21523001200F22523001244
:1002F30000F23523001200F29C0F001200F2AF143B
:10030300001200F2C52A001200F2D52A001200F2F0
:100313002F2A001200F2592A001200F2B22B001207
:1003230000F2E92B00C008C3E096F50808A3E096A5
:10033300420808A3E096420808A3E0964208A2D226
:1003430065D033E5087001D3D00822080808E630E9
:10035300E711120C08120366080808C64480C61881
:10036300181822181818E9799EC608CAC608CBC6F9
:1003730008CCC6C370207996CACBCC7019798ECBC2
:10038300CC70137986CC700EF9802ACA33CACB336A
:10039300CBCC33CC331930E7F2CCCBCA3350147007
:1003A30004EA30E00DE4CA3ACACB3BCBCC3CCC5098
:1003B3000209C3E913C6CC182313C6CB18C6CA183F
:1003C300C6F92212040620F01430E72B74FFFCFB5D
:1003D300FA747F8022E4FCFBFA7480801AB48008EC
:1003E300BC00F2BB00EF800F50EBF9E4C39AFAE4D0
:1003F3009BFBE49CFCE499C6CC18C6CB18C6CA1870
:10040300C6F922E4C9C608CAC608CBC6D333030853
:10041300CCC63392F0C3947F402E94184019C9B9C7
:100423000704CACBCC225025C309CA33CACB33CB6A
:10043300CC33CC33D9F422F4600DC9CCC313CB1322
:10044300CBCA13CAD9F6CC22E4FCFBFA2214FCFB78
:10045300FA22E62618461846184622E727194719AE
:1004630047194722181818E60846087009E62608AF
:100473007005E633F4220822191919E709470970B0
:1004830009E727097005E733F4220922E60846083D
:10049300C3134608336002E633F422E7094709C36E
:1004A300134709336002E733F42212048F602512E5
:1004B300049E6020120455700302045E080808E7D6
:1004C3006670101819E766700A1819E76670041841
:1004D30019E76622F42212048F601C12049E60172F
:1004E300120455700712045E7001D322C0D01204A7
:1004F3005E7006D0D0B322C32233D0D0501430E084
:10050300F6C3E7960809E7960809E7960809E79608
:10051300B32220E0D5E6970809E6970809E697088D
:1005230009E697B32212048F601B12049E60161211
:100533000455700712045E600CB322C0D012045E2F
:100543007005D0D022C32233D0D0501330E0EBC398
:10055300E7960809E7960809E7960809E79622202F
:10056300E0E4E6970809E6970809E6970809E6979D
:10057300220012048F604F12049E6012E7548066BB
:10058300F6120467701112045E703B090909F4F650
:1005930018F618F618F62212047B70151204550883
:1005A300080860EAE6447FF618768018E4F618F641
:1005B30022120455601612045E7012E4F608F6085F
:1005C300F608E65480F609090918181822EAC0E06B
:1005D300EBC0E0ECC0E0EDC0E0E687F0A4FBACF0DC
:1005E30008E687F0A42CFCE435F0FA1809E687F056
:1005F300A42C4B60027401CA35F0FCE433FB09E61A
:1006030087F0D2F7A42CCB35F0FC1908E687F0A4C9
:100613002BCC35F0FBE433FD0819E687F0D2E7A4D1
:100623002C4ACB35F0CD3400FC09E687F0D2E7A4A1
:100633002DCC35F0FDE433FA0918E687F0D2F7A4A0
:100643002CCD35F0CA3400FC08E687F0D2E7D2F7A8
:10065300A42ACC35F07A7E20E70B0ACB33CBCD33FB
:10066300CDCC33CC33CB3350147004ED30E00ED209
:10067300F1E4CD3DCDCC3CCC3B5005DA05C2F1EBEA
:10068300547FC63308E63392F0FBE73309E733C3FD
:100693009A502D2B70190C0D4C4D70151806E60849
:1006A300C333700D20F10AA2F013F6E418800B4057
:1006B30024E4F630F002768018F618F618F6802453
:1006C300D33B14501074FFA2F013F6187680E4188D
:1006D300F618F6800FA2F013F618E63303F618ECBB
:1006E300F618EDF6D0E0FDD0E0FCD0E0FBD0E0FA68
:1006F3002212049E604612048F603DE9687008F67A
:1007030018F618F618F622748067F71207280909F5
:1007130009748067F72212048F601D12049E70050E
:10072300191919801A120467701F12047BC370030E
:10073300E6673319191940071818182208080874AE
:10074300FFF618F618F618F62212047B6017120447
:100753005E702192F01204557019501720F014089E
:100763000808090909E7F61819E7F61819E7F6184A
:1007730019E7F62212045560E6E869701F0808E6D7
:100783002480F608E436F618547FB47F0CE65480D0
:100793006007F6E418F618F622181822E9C6CC0802
:1007A300C6CD08C6CE08C6CFC0E0E8C0E0EAC0E0C8
:1007B300EBC0E009E9F809E7FA09E7FBE6F918E60F
:1007C300F8C3EC98ED99EE9AEBC2E7F5F0EFC2E7C8
:1007D30095F0500E600CEBCFFBEACEFAE9CDF9E8C9
:1007E300CCF8EAA2E7D2E7FAEB33FB13F5F0EEA27B
:1007F300E7D2E7FEEF33FFC5F013A2E730E601B31C
:1008030013C5F0C3C0E0C0F07F00C39BFB605E94E0
:1008130018600F401D14601AD0E023F9D0E0F802ED
:1008230008FA8AF0E9486003D2F0E4AFF0FAF9F885
:10083300803BEB30E40D89F0EA6003D2F0E4AFF0E3
:10084300F9CAF8EB30E30D88F0EF6002D2F0AFF0B5
:10085300E4CAC9F8EB54076014FBC3EA13FAE913BB
:10086300F9E813F8EF135002D2E0FFDBEDD0E0C05C
:10087300E030E739C3E49FFFF5F0EC98FC42F0ED7C
:1008830099FD42F0EE9AFE42F0D0E0F9D0E0F8E5AF
:10089300F0607AE923F9EE20E742D8028067C3EFDC
:1008A30033FFEC33FCED33FDEE33FE80EAEC28FC42
:1008B300ED39FDEE3AFED0E023F9D0E0F8400280B6
:1008C3001BC3EE13FEED13FDEC13FCEF135002D22A
:1008D300E0FF08B800067F7F74FF802EEF335017C8
:1008E3008CF020F00260100CBC000C0DBD00080E53
:1008F300BE000408E860DFE933E813FFEE2313FECC
:100903004F4D4C8008E95480FFE4FEFDFCEE33EFCD
:1009130033F47004FCFD7E80D0E0FBD0E0FAD0E03D
:10092300F8D0E0CFC618CEC618CDC618CCC6F9226B
:1009330012048F70041818182212049E700D74FF8D
:10094300F61819F61819F61819F622E7548066F600
:10095300120455700F12045E70F014F608F608F6D0
:1009630008F680D112045E700CF608F6087680084B
:10097300E6447F80EC12047E700C12046A60BFE6CA
:100983005480F6E480BB12046A700519191980A516
:10099300E869700C763F18768018F618F6E8F922A5
:1009A300E6CDC0E018ECC0E0E633CD33CDD313F68B
:1009B300E719FCE7191933CC33C3947F400ECD9D5F
:1009C300502408E65480F6E418F6800FF4043D142E
:1009D300501408E6447FF6187680E418F618F6D02B
:1009E300E0FCD0E0FD22CCD313CCFD18E4C6CBC091
:1009F300E018E4C6CAC0E00808ED08C633E613F6FB
:100A030018E433C675F003C3CA97CA09CB97CB1949
:100A13009C40047D08802EBD0003020ADC16B6FF4D
:100A2300050606081618C3CA33CACB33CB33CA2705
:100A3300CA09CB37CB193CC37D08803E187D0820FB
:100A4300E75CC633C6CA33CACB33CB33DDF1D5F04B
:100A5300EB30E77BCA97CA09CB974ACB199C406F07
:100A63004B7025E620E0218066187D08C3CA97CA2B
:100A730009CB97CB199CD3C633C6CA33CACB33CB66
:100A83003350C9DDE7D5F0E1D3E4C636C608C63630
:100A9300C608C636C608C636C61818188031C3CA73
:100AA30097CA09CB97CB199CB34097C633C6CA33B1
:100AB300CACB33CB33DD34D5F02EC6A2E0C640C853
:100AC300CA27CA09CB37194A70BECB3CB480B908D0
:100AD30008E63308E633601F181818D0E0FAD0E0B0
:100AE300FBD0E0FCD0E0FD22187D08CA27CA09CB61
:100AF30037CB193CD3808013F618E4B67F11F61870
:100B0300B6FF0EF618C60470D20808768080CAF6BF
:100B130018F618F680C5080808EAC0E0EBC0E086BE
:100B2300F0E7A4FA180986F0E7A42AFA180986F070
:100B3300E7A42AFA180986F0E7A42AFA1986F0E747
:100B4300A4FBE5F02AFA190886F0E7A42BFBE5F0ED
:100B53003AFA190886F0E7A42BFBE5F03AFA1818DD
:100B63000986F0E7A4C5F02BFBE43AFA1908E7C5B8
:100B7300F0C6A426F6E5F03BFBE43AFA1886F0E764
:100B8300A4F6E5F00826F6E43B08F6E43A08F6D0C6
:100B9300E0FBD0E0FA22E4CFC0E0E4CEC0E0E4CD55
:100BA300C0E0E4CCC0E075F020E626F608E633F6B4
:100BB30008E633F608E633F6181818EC33FCED3381
:100BC300FDEE33FEEF33FFC3EC9709ED9709EE9784
:100BD30009EF97191919400FFFEC97FC09ED97FDE1
:100BE30009EE97FE191906D5F0BFECF709EDF709E1
:100BF300EEF709EFF7191919D0E0FCD0E0FDD0E0CA
:100C0300FED0E0FF22181818E4C396F608E496F61F
:100C130008E496F608E496F622E0F608A3E0F60860
:100C2300A3E0F608A3E0F622E6F008A3E6F008A3A3
:100C3300E6F008A3E6F022E0FAA3E0FBA3E0FCA3BE
:100C4300E0FD22E0F8A3E0F9A3E0FAA3E0FB22E849
:100C5300F0A3E9F0A3EAF0A3EBF022CAC0E0E6F0C8
:100C6300A308DAFAD0E0FA22CAC0E0E0A3C582CC36
:100C7300C582C583CDC583F0A3C582CCC582C58398
:100C8300CDC583DAE6D0E0CA22C3E498F8E499F943
:100C9300120CCD8026C3E49AFAE49BFBE920E7E932
:100CA300120CCDE498F8E499F922C3E498F8E49996
:100CB300F9120CCDE498F8E499F9C3E49AFAE49BA9
:100CC300FB22EB20E7CFE920E7E0B90010BB0008E7
:100CD300E88AF084F8AAF022E4FBC8FA22EB702237
:100CE3007B10C833C8C933C9335007C39AC3DBF277
:100CF30080069A50012ADBEAC833F4C8C933F4C921
:100D0300FA2275F008E4C833C8C933C933C99AC98C
:100D13009B5004C92AC93BD5F0ECFBC833F4C8E4A3
:100D2300C9FA22700422600D18C6C333C608C6333D
:100D3300C6D5E0F41822251010AF08F510400C15A5
:100D4300118008F51040021511D2AF2200C0D02542
:100D53001010AF08F510500C05118008F510500263
:100D63000511D2AFD0D0222510F58210AF08F510AF
:100D7300400C15118008F51040021511D2AF8511F2
:100D830083222510F582E43511F583222510F8E43A
:100D93003511F9222510FAE43511FB222510FCE464
:100DA3003511FD22E4732510C582C0E0E51134FF3F
:100DB300C583C0E0E510C3958224F810AF0885838E
:100DC300118582108008858311858210D2AFCEF001
:100DD300A3E520F0A37808E608F0A3DEFAEFF0A37A
:100DE300E58124FAF8E608F0A3E608F0A3E608F0A4
:100DF300A30808E608F0A3E608F0A315811581D03F
:100E0300E0FED0E0F8158115811581E8C0E0EEC061
:100E1300E022851183851082E0A3FEE0A3F520780C
:100E230008E0A3F608DFFAE0A3FFE0A3C0E0E0A335
:100E3300C0E0E0A3C0E0E0A3C0E0E0A3C0E010AFE7
:100E4300088582108583118008858210858311D2DD
:100E5300AFD083D0820200EFC0D02510C582C0E09E
:100E6300E51134FFC583C0E0E510C3958224F31078
:100E7300AF088583118582108008858311858210D0
:100E8300D2AFC8F0A3E9F0A3EAF0A3EBF0A379088B
:100E9300E709F0A3D8FAECF0A3EDF0A3EEF0A3EF8B
:100EA300F0A3D0E0F0A3D0E0F0A3D0E0F0A3E520DE
:100EB300F0A3E5F0F0A322851183851082E0C0E062
:100EC300A3E0F9A3E0FAA3E0FBA37808E0F608A304
:100ED300DFFAE0FCA3E0FDA3E0FEA3E0FFA3E0C094
:100EE300E0A3E0C0E0A3E0F5D0A3E0F520A3E0A3F6
:100EF300F5F010AF08858311858210800885831172
:100F0300858210D2AFD082D083D0E0F8D0E03274A3
:100F13000280027401C0E0F404120D6AD0E0120CE6
:100F23005E2274028000CCC0E0EDC0E0E510C39CFB
:100F3300CCAD1150011D10AF068C108D1180068CA5
:100F4300108D11D2AF120C6BD0E0FDD0E0FC22EA81
:100F5300F5C1A2E950FCC2E922C0E074F2120E5BB3
:100F6300A2AFE433FEC2AFE5E9A2E650209002FC53
:100F7300E0F8A3E0F9E849600E9002FCE0F8A3E092
:100F8300F5838882120DA7759B0053E9BFEEF8EE37
:100F9300A2E092AF7F01020EBA74F0120DA974FDA4
:100FA300120D397402120D85E9F08A088B098C0A37
:100FB3008D0B7415120D85E0FEA3E0FF851082856D
:100FC3001183E4F0A3F08E828F83A3AA82AB839074
:100FD30003DB780C120C1C7808790C1204AD701129
:100FE3008E828F837469121487746EF0A374668083
:100FF30018780879081204AD60188E828F83746E96
:101003001214877461F0A3746EF0A30A0AAB83020F
:1010130014269003DF780C120C1C7808790C120448
:10102300D950030210C99003E3780C120C1C780802
:10103300790C1204AD600302111D7417120D85E0C3
:10104300700302115F851082851183C082C083748F
:1010530013120D85121EDBD083D082121460502F21
:10106300851082851183C3E094FCA3E094FFA2D290
:1010730065D033401A7402120D85E4121FCBF8A316
:10108300E0F97413120D85C3E098F0A3E099F074AE
:1010930013120D8512147D7418120D85E07003026E
:1010A300115C7417120D85E402115E9003E7780C4E
:1010B300120C1C7808790C12093385108285118370
:1010C300E0240A121FE99003EB780C120C1C780839
:1010D300790C1204D940D49003EF780C120C1C78CD
:1010E30008790C1204D9400302103D9003EF780CE9
:1010F300120C1C7808790C120933121FE080D89067
:1011030003E7780C120C1C7808790C12057485100F
:1011130082851183E024F61214809003F3780C1275
:101123000C1C7808790C12052840D49003DF780C46
:10113300120C1C7808790C120528400302103D900C
:1011430003EF780C120C1C7808790C1205748510C7
:101153008285118312147D80D27401F07402120D02
:1011630085E060057A000211EC12146C507F8E82C8
:101173008F837430F0EAFEEBFF7413120D85E0FCED
:10118300A3E0FDEC4D70087418120D85E0600B8E22
:10119300828F83742EF0A30EAF837A007B008011BD
:1011A3008E828F8374301214A87413120D85121457
:1011B3007DEA24FF1AEB34FFFB851082851183122D
:1011C3001454500C7413120D85121EDBE84970D0B1
:1011D30085108285118374FFC39CF874FF9DF912F7
:1011E3001460500302133E7A017B00807B851082DA
:1011F300851183121EDBC3E498FAE499FB806985A9
:10120300080C85090D850A0E850B0F780C1203C691
:10121300AC0CE50D3395E0F50EF50F780C12034E8B
:101223007808790C1206F49003EF780C120C1C78F2
:1012330008790C120574EC1214A2EAF8EBF9E8240D
:10124300010AE439FBE849701F7413120D85121E5D
:10125300DBE84970087418120D85E0600B8E828FED
:1012630083742EF0A30EAF837413120D85121454DE
:10127300508D9003F7780C120C1C7808790C12042B
:10128300D9400302133E7C01EE24FFF8EF34FFF94B
:101293007415120D85E0F508A3E0F50988828983AA
:1012A300E0642E6010E02CF0643A70077430F07C38
:1012B3000180027C00E8FAE9FBEA24FF18EB34FF23
:1012C300F9C3E5089AE5099B40D2ECA2E0506C749F
:1012D30002120D85E0603BEEF8EF800DEC88828909
:1012E30083F0E824FF18E934FFF9C3E50898E5091A
:1012F30099501A121430E0FC742E6C70DFE824FE4F
:10130300F582E934FFF58312143DF980D5121FE00D
:10131300801E8E828F83A3AE82AF83EEF8EF8006AA
:1013230012143012143DF9C3E50898E5099940F009
:101333007415120D85121F057431F07417120D8583
:10134300E07005801C1EAF83EE24FFF582EF34FFAF
:10135300F583E0F874306860EC742E6870031EAF98
:10136300837402120D85E070030214221214A4A3E5
:10137300A98312146C8E828F835014742DF00EE99E
:10138300FF851082851183121F1D12149580067428
:101393002BF00EE9FF7C007D00EE240AFE50010FC6
:1013A3000CEC70010D121446120CC5EA1214A212B1
:1013B3001446120CC5851082851183E8F0A3E91247
:1013C3001FCB4970DBC3EC9402ED121E9A40D1ECA3
:1013D300FAEDFBC3E49CF8E49DF9EE28F582EF39BE
:1013E300F583E0C0E0C3E49AF8E49BF9EE28F8EF54
:1013F30039F9E82CF8E93DF9E824F5F582E934FFF9
:10140300F583D0E0F0EC24FF1CED34FFFDC3EC9436
:1014130001ED121E9A50BCEE24F6FEEF34FFFFEEF0
:10142300FAEFFB7403120D4F7F08020E15E824FF39
:10143300FAE934FFFB8A828B8322E088828983F076
:1014430018EB22851082851183121F637A0A7B00B1
:1014530022C3E09AA3E09BA2D265D03322C3E098D3
:10146300A3E099A2D265D03322851082851183C36C
:10147300A3E09400A2D265D03322E024FFF0A3E0DE
:1014830034FFF022F0EAFEEBFF8E828F8322A3E08B
:101493003400F9851082851183E8F0A3E9F0222452
:1014A300308E828F83F0A3AE82AF832274F0120D4D
:1014B300A974AE120D39851082851183121F997498
:1014C30017120D85ECF0A3EDF0740F120D85E4F007
:1014D300A3801B7462120D85121ECB7417120D8527
:1014E300121F05120DA7740F120D85121EA2F01202
:1014F3001F3FF9851082851183E02401FAA3E034AC
:1015030000FB851082851183121F99742569601071
:10151300E970C0740F120D85121ECB745202142889
:10152300121F3F64257019851082851183E0240101
:10153300081214917462120D85121ECB7925809BBB
:10154300740E120D85E4F0740D120D85E4F0740C25
:10155300120D85E4F07405120D85E4F07420120D6C
:101563008F7402120D8512149C741E120D8574A6BD
:10157300F0A3740380197405120D85E070077405D8
:10158300120D85EAF0851082851183E8F0A3E91234
:101593001FCB121E8F121F34FA24E060D924FD6082
:1015A3001724F860D924FE600624FD600F801174AF
:1015B3000C120D85E00480CC740D80F5740E80F15F
:1015C300121F34642A705C7464120D85121F3AFA78
:1015D300A3E0FB8A828B83E0FCA3E0FD740A120D77
:1015E30085ECF0A3EDF0EA2402FA50010B746412C7
:1015F3000D85121F91740A120D85121472501F74F7
:101603000A120D85121ECBC3E49AFAE49BFB740AFB
:10161300120D85121F99740C120D85E004F012143B
:10162300968043740A120D85E4F0A3802D740A1288
:101633000D85121ECBEA75F00AA4FAA9F075F00A1B
:10164300EBA429FBEA28F8E43BF9E824D0F8E934D1
:10165300FFF9740A120D85121FF0121FD8F874D007
:1016630028C3940A40C7740C120D85E06007740EFA
:10167300120D85E4F0121F3F642E70798510828568
:101683001183E0240108121EEFE8F0A3E9121FD82A
:10169300642A70267464120D85121F588882898308
:1016A300E0FEA3E0FFE82402F85001097464120D80
:1016B30085121F27121FF0F0803F7E007F00121F4C
:1016C3004C74D028C3940A5030EE75F00AA4FEA9D6
:1016D300F075F00AEFA429FFEE28F8E43FF9E824B7
:1016E300D0FEE934FFFF851082851183E02401F8E1
:1016F30012149180C97EFF7FFF7A008510828511C5
:1017030083E02401F8121EEFE0FBA3E0F5838B8254
:10171300E024B4600824E4600624FC70057A011216
:101723001496121F4C851082851183E02401FCA3BB
:10173300E03400FD851082851183ECF0A3EDF07495
:1017430004120D85E8F07003021D3624BB700302FA
:101753001BFF24FE7003021BE124EF700302193008
:1017630024F570030218261470030219DB147003A6
:10177300021BFF147003021BFD147003021BE12400
:10178300FE70030219DB24FB602414700302191496
:1017930014700302193024FD700302185D24FE70D7
:1017A3000302193024FD7003021924021D427464DC
:1017B300120D85121F7F120D85121FA7120D8512A0
:1017C3001F58E8FCE9FD7406120D85E02402F508B4
:1017D300A3E03400F509EAA2E0740F502F120D853F
:1017E300121EDB3395E0FA8C828D83E8FCE9FDEA77
:1017F300FEECF0A3EDF0A3EEF0A3F07464120D85FC
:10180300121F05E508F0A3E5090214F1120D851274
:101813001EDB8C828D8312149C7464120D85121F3F
:101823002780E07464120D85121F52121F47C0E017
:101833007420120D85D0E0F07464120D85121F051B
:10184300121F69120D85121F2712149C7421120D89
:1018530085A882A983741102190A7464120D851272
:101863001F7F120D85121FA7120D85121F7F120DE8
:1018730085E02402FAA3E03400FB7464120D8512A0
:101883001F917402120D8512149CE849700C7402A6
:10189300120D8574B7F0A37403F0121E9850047EE2
:1018A300107F277408120D85E4F0A38008740812D2
:1018B3000D85121EA2F07402120D85121EDB8882A2
:1018C3008983A3AA82AB837402120D85121F9988A0
:1018D300828983E0600A7408120D85121EDF40CDF1
:1018E3007402120D85121EB97411120D8512149C07
:1018F3007408120D85121F1DF97411120D85E0284D
:10190300F8A3E039F97402120D85E8F0A3E9021D8A
:1019130059740D120D85E06008EE4F70047E017F4F
:1019230000741E120D8574C6F0A37403F074641260
:101933000D85121F7F120D8512149C7404120D85E0
:10194300E0647070327406120D85121F75120D85D6
:10195300121FAF120D85121F69120D85121F271258
:10196300149C741A120D857410121FB9A3F0740518
:10197300120D85E4021A67EAA2E07406501B120DE9
:1019830085121F05120C467413120D85120C527426
:1019930006120D85E024048012120D85121F7512A4
:1019A3000D85121FAF120D85E02402121F6C120D5C
:1019B30085121F2712149C7404120D85E0646F7046
:1019C30009741A120D857408809FE064757093740E
:1019D3001A120D85740A80917464120D85121F7F8B
:1019E300120D8512149CEAA2E074065015120D859F
:1019F300121F057808120C1C7406120D85E02404CE
:101A0300801B120D85121F45F508A3E0F5093395D8
:101A1300E0F50AF50B7406120D85E02402121F6C23
:101A2300120D85121FC0120D857808120C2B90031E
:101A3300E3780812032840217405120D85742DF0F4
:101A43007413120D857808120C1C7808120C0B7491
:101A530013120D857808120C2B741A120D85740A53
:101A6300121FB9A3F07451120D85A882A9837402C1
:101A7300120D8512149C7411120D85121FC3120DC1
:101A830085120C46E8494A4B600A7419120D857495
:101A930001F0800E7419120D85E4F0EE4F7003020D
:101AA3001B517402120D85121EFF120D85121FC3E6
:101AB300120D85780C120C1C741A120D85780812FD
:101AC3000C1C780C7908120B99741E120D85E025F5
:101AD30008F8A3E035098882F583E0C0E0740212B8
:101AE3000D85121F05D0E0F07413120D85780C12CA
:101AF3000C1C741A120D857808120C1C780C7908CA
:101B0300120B997413120D85780C120C2B7413128B
:101B13000D85120C46E8494A4B7087121E98502EC9
:101B2300740E120D85E060267405120D85E06004C5
:101B3300D2F08002C2F0740A120D85121EAB800E21
:101B43007402120D85121F9F120D85121F16740247
:101B5300120D85121EB97451120D85C082C0837493
:101B630002120D85121ECBD083D082E582C39AFA6E
:101B7300E5839BFBC3EA9EEB121EE840C3740D1280
:101B83000D85E07003021D5A7419120D85E0A2E061
:101B93004003021D5A7404120D85E064786005E069
:101BA30064587010E088828983F0E824FF18E934D0
:101BB300FFF98017E0646F6003021D5A7402120D6F
:101BC30085121F3A64307003021D5A7402120D8588
:101BD300121F9F120D85121F057430021D597408C0
:101BE300120D857401F0A3E4F07404120D85E02452
:101BF300FEF0EE4F700F7E018012E4F07408120DB8
:101C030085E4F0A3F0121E9850047E067F007464EE
:101C1300120D85121F7F120D85121FA7120D85123B
:101C23001F05780C120C1C7406120D85E024041297
:101C33001F6C120D85121FC0120D85780C120C2B10
:101C43009003E37808120C1C780C790812052850CD
:101C5300227405120D85742DF07413120D85780806
:101C6300120C1CE50BB2E7F50B7413120D85780803
:101C7300120C2B740A120D857420120D8F8909E042
:101C830028F8A3E03509F97402120D8512149C7427
:101C93000D120D85E0F5087808120F167409120D60
:101CA30085E0F5087808120F167404120D85120FDB
:101CB300258E088F097808120F12740A120D85E019
:101CC300F97419120D85120C3A1202F87406120DEA
:101CD3004F7411120D85121F99740E120D85E06059
:101CE300767405120D85E06004D2F08002C2F074B0
:101CF3000A120D85121EAB7411120D85C082C083AA
:101D03007402120D85121EDBD083D082E0C398F8D3
:101D1300A3E099F9C3E89EE9121EE8503A7402124F
:101D23000D85121EFF120D85121F9F120D85121FA6
:101D33001680C4851082851183121EC212149574F5
:101D430002120D8574D7F0A37403F07411120D857C
:101D530074DAF0A37403F07411120D85C082C0838A
:101D63007402120D85121EDBD083D082E0C398FE6D
:101D7300A3E099FF740A120D85121EDF500A74083E
:101D8300120D85E4F0A380307405120D85E0600424
:101D9300D2F08002C2F0740A120D85E0C39EFAA34A
:101DA300E09FFBA2F0E433F8EA98F8EB9400F974AF
:101DB30008120D85E8F0A3E9F0740C120D85E070AC
:101DC3002B80197462120D85121ED1120D85121FFC
:101DD30005120DA7740F120D85121FE67408120D5C
:101DE30085121F85120D8512147250D77405120DBA
:101DF30085E060517462120D85121ECB7405120DBD
:101E030085E0F97417120D85121F05120DA7802D99
:101E13007462120D85121ECB7402120D85121F45BA
:101E2300F97417120D85121F05120DA77402120DF6
:101E330085E0121E8F7402120D8512149C740F120A
:101E43000D85121FE6EE24FF1EEF34FFFFC3121EA3
:101E53009A50BD740C120D85E070030214F27408DD
:101E6300120D85121F85120D851214725003021470
:101E7300F27462120D85121ED1120D85121F051206
:101E83000DA7740F120D85121FE680D22401F8A34B
:101E9300E03400F922C3EF9400A2D265D03322E0EC
:101EA3002401F0A3E0340022A2F0E433F8E098FE2A
:101EB300A3E09400FF22121EBD22121EC2F922E0EB
:101EC30024FFF8A3E034FF22E0FAA3E0FB22E0FAC8
:101ED300A3E0FB7920741722121F6322C3E09EA3A1
:101EE300E0121EE8229FA2D265D03322121EF322F3
:101EF300A3E03400F985108285118322121EBD747C
:101F03000222121F0922121F0D22E0F8A3E0F5831B
:101F1300888222121F097430F022121F63C3E498CF
:101F2300F8E49922121F2B22E0FAA3E0F5838A82B8
:101F330022851082851183121F2BE0228510828552
:101F43001183E0F8121F0FE022851082851183129E
:101F53001F09E0F822121F5C22121F0D121F6322B9
:101F6300E0F8A3E0F922E02402F8A3E03400F974D6
:101F73006422121F5CE8FAE9FB741322121F5C74DB
:101F83000622E024FFF0A3E034FFF0740822E0FC13
:101F9300A3E0F5838C82EAF0A3EBF022E8F0A3E957
:101FA300F0740222E8F0A3E9F0740622EAF0A3EB4E
:101FB300121FB9740622F0A3E4F0A3F022121F2B20
:101FC300E8F0A3E9F0741322121FCF22F0851082E8
:101FD300851183E022121FCF121F0EE0228510828B
:101FE300851183E02401F0A3E03400F022E8F0A39C
:101FF300E9121FCF2401F8121EF3E8F0A3E922C06F
:1020030082C0839003A0E0F8A3E0F9E875F06DA423
:10201300C8AAF075F04EA42AFA75F06DE9A42AF95E
:10202300E82439F8E93430F9E854FFF8E9547FF942
:102033009003A0E8F0A3E9F09003A0E0FAA3E0FB8B
:10204300D083D0820200EF74F0120DA974F9120D3F
:10205300397405120D85EAF0A3EBF07403120D85B4
:10206300ECF0A3EDF0E9C0E07402120D85D0E0F0CE
:102073007401120D857407F07E0075080080010E4F
:102083007401120D85E0F8EEC398400302212BEE94
:10209300C3940A5004EEFF80027F0AEFC0E085106C
:1020A30082851183D0E0F0750C01750D00851082D7
:1020B300851183E0780C120D26E50D3395E0F50EBE
:1020C300F50F1202A48A088B09E4F50AF50B7808C8
:1020D300790C120B999003A27808120C1C780C79D6
:1020E30008120B19AA0CAB0D1202447508008009E3
:1020F3007A057B001202440508E508C3940340F007
:102103007402120D85E0F97403120D85E0FCA3E05F
:10211300FD7405120D85E0FAA3E0FB120214E960D9
:10212300030220827900800279017407120D4F7F28
:1021330008020E1574F4120DA974CE120D39120291
:102143001A801C7A017B0012022C7A647B00120233
:10215300447A017B001202267A847B031202441222
:1021630002F21202E6E9F5081202ECE9F50A750932
:10217300007808120F12750B00780A120F127C6B8D
:102183007D037404120D971203167404120D4FAAE3
:1021930010AB111203228A088B09A808A909E824A5
:1021A30001F9AC10AD117A027B411202AAE96093E6
:1021B3007A017B0012022C7AF47B011202447A0129
:1021C3007B001202267AF47B0112024480911202F0
:1021D300B61202BC7A0079001202C21202E01202A5
:1021E3009E12024AE96401700312022090030274F2
:1021F30010F0A37414F09003047418F090030574A2
:1022030001F09003007403F0A37441F07A007B03A0
:1022130012020EE9640170031202201202B00200DE
:10222300EF53BEFBE59EA2E650FA53C6B843BE0485
:102233000200EF53F4FC43FE03D290D2910200EF6D
:1022430043F30C53F1FE53FF3F7586C075C50A7502
:10225300C23BE94A42C40200EF89C1A2E950FCC271
:10226300E90200EF74F7120DA9EAFEEBFF80128E6C
:10227300828F83E0F91202C88E828F83A3AE82AF6E
:10228300838E828F83E070E77F01020E15780079D9
:1022930000A28550FC78007900800508E8700109E8
:1022A300C3E894C8E99400A2D265D0335004A28550
:1022B30040E9C3E8941EE99400A2D265D0335004E8
:1022C3007900800279010200EF74F4120DA97508F8
:1022D300007E077F00801B1202D4E9F50A750B000C
:1022E300EE780A120D26E50A4208EE24FFFEEF34CB
:1022F300FFFFC3EE9400EF9400A2D265D03350D712
:10230300A9087F04020E1553F3DF43FD20D2850293
:1023130000EFC082C0839002FEE0F9D083D0820236
:1023230000EFC082C0839002FFE0F9D083D0820225
:1023330000EF74F4120DA974E2120D397E017F00CF
:10234300C2857A127B00120244D2857E007F00A2EE
:1023530085500FEE2401F8E43FF9E8FEE9FFE84970
:1023630070EDEE4F700302240B7E007F00A28540C8
:102373000FEE2401F8E43FF9E8FEE9FFE84970EDC8
:10238300EE4F700302240B7E007F00A285500FEEF8
:102393002401F8E43FF9E8FEE9FFE84970EDEE4F68
:1023A30060661202DAE9F50A1202DAE9FF1202DACA
:1023B300E9F5081202DAE9FE1202DAE9F8E50A2F72
:1023C30025082EF9E869700CE5089002FEF0E50A8D
:1023D3009002FFF0900382AC10AD11741E120C6BCF
:1023E3007509007808120F12750B00780A120F1284
:1023F3007C6B7D037404120D971203167404120D83
:102403004FAA10AB111202CE741E120D4F7F04029D
:102413000E1574F7120DA9E9FEEAF8EBF9E8FAE9EB
:10242300FB740B2EC0E08A828B83D0E0F09002070E
:10243300E0F8A3E0F5838882A3A3A3A3A3E0600647
:1024430078617988800478417988E8C0E08A828B52
:1024530083A3D0E0F0E4C9F8E8C0E08A828B83A3C9
:10246300A3D0E0F0900200E0C0E08A828B83A3A3B4
:10247300A3D0E0F0900207E0F8A3E0F5838882A3FD
:10248300A3E0F8A3E0F98A828B83A3A3A3A3E8F0D4
:10249300A3E9F08A828B83A3A3A3A3A3A3ECF0A352
:1024A300EDF0900207E0F8A3E0F5838882E0F8A35B
:1024B300E0F98A828B83A3A3A3A3A3A3A3A3E8F036
:1024C300A3E9F0790A7F01020E1574F7120DA9EC46
:1024D300FEEDFF8908A908EAFCEBFD7A097B0212ED
:1024E30001FCE9FD7C00802BECF87900EE28F582F5
:1024F300EF39F583E0C0E0EDFA7B00ECF87900EA10
:1025030028F8EB39F9740928F582740239F583D078
:10251300E0F00CECC3950840CFED2508F97F0102EC
:102523000E1574F7120DA97E7C7F0212028012022F
:10253300327901EEFAEFFB1202688E828F83E0C2DA
:10254300E7F08E828F83E0640570528E828F83E082
:10255300F97A7D7B021202688E828F83A3E0A2E563
:102563005004D2F08002C2F0A2F0E43390030EF0E4
:102573007880790288828983A3E0A2E74003022658
:10258300478E828F83A3A3A3E0F8900200E06860E4
:10259300030226479002017401F00226478E828FC0
:1025A30083E024F590030BF08E828F83E0F97A7D2C
:1025B3007B021202688E828F83A3E0A2E55004D2CD
:1025C300F08002C2F0A2F0E43390030EF08E828F0B
:1025D30083A3A3A3A3A3A3A3A3E0F8A3E0F9900376
:1025E30007E8F0A3E9F090030C7486F0A37402F0FB
:1025F30090030BE0F83395E0F990030CE028F8A37F
:10260300E039F988828983E090030FF08882898317
:10261300A3E0A2E75022900306E0F88E828F83A303
:10262300A3A3E06860128E828F83A3E054DF64412A
:1026330070069003107401F08E828F83A3A3A3E02E
:10264300900306F01202381202867F01020E1574FF
:10265300F7120DA9EAFEEBFF12024AE964017004C6
:1026630079018079120238900207EEF0A3EFF0901F
:10267300030C7400F0A37400F09002027401F07C68
:10268300007D007E007F00900203ECF0A3EDF0A339
:10269300EEF0A3EFF0900207E0F8A3E0F583888261
:1026A300A3A3A3A3E0F9120250900207E0F8A3E06A
:1026B300F5838882E0FAA3E0FB120256900207E05A
:1026C300F8A3E0F5838882A3A3E0FAA3E0FB120258
:1026D3005C7A087B0212028C12023279007F0102BB
:1026E3000E1574F4120DA9EAFEEBFF8C0A8D0B890B
:1026F30009900202E07003120274E509C394675063
:102703000585090880037508678508091202921276
:102713000280A909AC0AAD0BEEFAEFFB120202E943
:10272300F97A097B0212026212028612026EE960D2
:10273300027E01900207E0F8A3E0F5838882A3A359
:10274300A3A3A3E0601C9002017400F07A4A7B0209
:1027530012023E900201E06004740080027401FEE4
:1027630080027E00900202E0700312027AEE70078C
:10277300900200E02401F0EEF97F04020E15C082FE
:10278300C0839002027400F012027AD083D08202D6
:1027930000EF74F6120DA974DA120D397E0080165B
:1027A3007A127B0312030A7AFA7B001202447AFA42
:1027B3007B001202440EEEC3940240E47AFA7B00DB
:1027C3001202447AFA7B0012024490031F74081227
:1027D3000D9F741E120C6B7A0C7B78780079008045
:1027E30023EA28F582EB39F583E0C0E08510828582
:1027F3001183E58228F582E58339F583D0E0F0087B
:10280300E8700109C3E89408E99400A2D265D033C3
:1028130040CF7C3D7D037408120D9712031C851075
:1028230082851183E0F5087509007808120F127488
:1028330003120D85E0F5087509007808120F12746C
:1028430006120D85E0F5087509007808120F127459
:1028530009120D85E0F5087509007808120F127446
:102863000C120D85E0F5087509007808120F127433
:102873000F120D85E0F5087509007808120F127420
:1028830012120D85E0F5087509007808120F12740D
:1028930015120D85E0F5087509007808120F127CF2
:1028A300437D03741D120D85AA82AB831203167434
:1028B30010120D4F7424120D85747DF07E00801765
:1028C3007408120D9712030A7AFA7B001202447AF3
:1028D300FA7B001202440EEEC3940240E374261204
:1028E3000D4F7F02020E15C082C083906189E044C0
:1028F30060F09061FA7409F09061B27415F0906120
:10290300AE7400F01202981202867900D083D0824E
:102913000200EFC082C08375F005E9A424D490615E
:102923008FF0D083D0820200EFC082C083EA90612F
:1029330074F0E4CBFAEA906175F0D083D0820200A0
:10294300EFC082C083EA906172F0E4CBFAEA90614F
:1029530073F0D083D0820200EFC082C08375E1EEB2
:102963007591FD78008010E8FC7D00EA2CF582EB80
:102973003DF583E0F5D908E8C39940EBD083D082D5
:102983000200EFC082C0838015E5D9C0E08A828B44
:1029930083D0E0F08A828B83A3AA82AB8319E97088
:1029A300E8D083D0820200EF75E1E9E591A2E1501E
:1029B300FA7591FD79000200EF75E1EC75E1E30230
:1029C30000EF75E1EF75E1EC0200EFC082C0839088
:1029D30061A3E0C2E6F0539AFED083D0820200EFF7
:1029E300C082C0839061A3E0D2E6F0439A01D08312
:1029F300D0820200EFC082C083A2AFE433F8C2AF3B
:102A03009002FCEAF0A3EBF0E8F9E8A2E092AFD081
:102A130083D0820200EFC082C083906193E054228E
:102A230070F8D083D0820200EF0200EFC082C0832F
:102A33008A828B83122ABCE9F08A828B83E0240189
:102A4300FCA3E03400FD8A828B83ECF0A3EDF0D08D
:102A530083D0820200EF74F6120DA974FC120D39B3
:102A63007402120D85EAF0A3EBF0ECFAEDFB740EA1
:102A7300120D8F851082851183E8F0A3E9F0A81069
:102A8300A911880889097808120F127404120D8F8E
:102A9300880889097808120F127C107D031202FE40
:102AA3007404120D4F7402120D85122ABCE4F074E3
:102AB30004120D4F7F02020E15E0F8A3E0F58388A0
:102AC3008222EEC0E0E9FA7B00120F52D0E0FE0250
:102AD30000EF74F6120DA974FE120D39740C120D69
:102AE3008F851082851183E8F0A3E9F0A810A9115E
:102AF300880889097808120F12E4F508F50978089F
:102B0300120F127C047D031202FE7404120D4F7423
:102B130002120D4F7F02020E15EBC313FBEA13FAE9
:102B2300EAF8EBF9E824FFFAE934FFFBE84960131C
:102B33000000000000000000000000000000000092
:102B43000080DD0200EF74F7120DA9EAFEEBFFEE41
:102B5300F8EFF9E824FFFEE934FFFFE84960097A5A
:102B6300E87B0312023E80E77F01020E15EAA2E032
:102B73005002D290EA54026003859090EA540460B4
:102B830003859090EA54086002D2A00200EFEAA203
:102B9300E05002C290EA54026003859090EA540424
:102BA3006003859090EA54086002C2A00200EF74AB
:102BB300F7120DA9EAF8EBF98005A3AA82AB838A81
:102BC300828B83E070F48C828D83E0FEA3AC82ADB4
:102BD300838A828B83F0A3AA82AB8370E9E8FAE944
:102BE300FB7F01020E15C082C0838A828B83800122
:102BF300A3E070FCE582C39AFAE5839BFBD083D004
:102C0300820200EFD2AF0200EFC2AF0200EF80FEFC
:04000005000000D720
:00000001FF
