:020000040000FA
:030000000200D724
:10008300020F7300000080FBE490020078077902FE
:100093008002F0A3D8FCD9FA7A067B039001077893
:1000A3001679028015E493A3AD82AE838A828B8393
:1000B300F0A3AA82AB838D828E83D8E9D9E77582B8
:1000C300B375832674001200E97582867583007404
:1000D300001200E975D0007581BF7510007511021B
:1000E300759F0002008BC09FF59FE473D09F22D0C1
:1000F30083D082C09FE493C0E0740193C0E0740294
:1001030093F59F22FF0000000000000000000000A4
:100113007B545950453D30323130317D0000000071
:1001230000000000000000000000000000000000CC
:1001330000000000000000000000007B4D41433D33
:1001430000253032583A253032583A253032583A61
:10015300253032583A253032583A253032583A252C
:100163003032583A253032580000000000000000B9
:10017300000000000000000000000000007B413090
:100183003D25647D0025640D0A007B4C6967687416
:100193003D25647D007B646174613D73656E6420FD
:1001A3006E6F64652073656E642025642074696DC9
:1001B30065732C204C696768743D25647D0001419B
:1001C3001400000030313233343536373839414288
:1001D3004344454600286E756C6C20706F696E74DD
:1001E300657229003031323334353637383961623C
:1001F30063646566003F3F3F000000807F0000802E
:100203003F00000000F9021550B743BA5100002027
:100213004100E7DB2E0000A0401200F2192000127B
:1002230000F2D120001200F22921001200F256221E
:10023300001200F2E922001200F28523001200F2FC
:100243007F2B001200F2DE2A001200F2FF2A0012B6
:1002530000F2752B001200F27A2B001200F28A2AA8
:10026300001200F2B72A001200F25828001200F21E
:100273008428001200F29A28001200F2B228001219
:1002830000F2CA28001200F2F428001200F2192921
:10029300001200F22A29001200F23329001200F2A0
:1002A3003C29001200F25129001200F266290012C3
:1002B30000F28729001200F29A29001200F20327A4
:1002C300001200F29923001200F2E523001200F25B
:1002D300F723001200F20424001200F21D2400127E
:1002E30000F22824001200F25124001200F2BA2472
:1002F300001200F20225001200F2EF25001200F2B4
:10030300B30F001200F2C614001200F2332A0012D7
:1003130000F2432A001200F29D29001200F2C729BD
:10032300001200F2202B001200F2572B00C008C36A
:10033300E096F50808A3E096420808A3E096420871
:1003430008A3E0964208A2D265D033E5087001D332
:10035300D00822080808E630E711120C1012036EC9
:10036300080808C64480C618181822181818E9790E
:100373009EC608CAC608CBC608CCC6C370207996E9
:10038300CACBCC7019798ECBCC70137986CC700E16
:10039300F9802ACA33CACB33CBCC33CC331930E7F9
:1003A300F2CCCBCA3350147004EA30E00DE4CA3AFD
:1003B300CACB3BCBCC3CCC500209C3E913C6CC1807
:1003C3002313C6CB18C6CA18C6F92212040E20F08E
:1003D3001430E72B74FFFCFBFA747F8022E4FCFBF0
:1003E300FA7480801AB48008BC00F2BB00EF800F5F
:1003F30050EBF9E4C39AFAE49BFBE49CFCE499C652
:10040300CC18C6CB18C6CA18C6F922E4C9C608CA8E
:10041300C608CBC6D3330308CCC63392F0C3947F4C
:10042300402E94184019C9B90704CACBCC225025D1
:10043300C309CA33CACB33CBCC33CC33D9F422F47C
:10044300600DC9CCC313CB13CBCA13CAD9F6CC22C4
:10045300E4FCFBFA2214FCFBFA22E62618461846B3
:10046300184622E72719471947194722181818E68B
:100473000846087009E626087005E633F4220822C8
:10048300191919E70947097009E727097005E733BF
:10049300F4220922E6084608C3134608336002E63D
:1004A30033F422E7094709C3134709336002E733EB
:1004B300F42212049760251204A6602012045D70D2
:1004C30003020466080808E76670101819E76670E7
:1004D3000A1819E76670041819E76622F422120451
:1004E30097601C1204A6601712045D70071204665D
:1004F3007001D322C0D01204667006D0D0B322C3D9
:100503002233D0D0501430E0F6C3E7960809E796BB
:100513000809E7960809E796B32220E0D5E697088D
:1005230009E6970809E6970809E697B322120497A4
:10053300601B1204A6601612045D70071204666045
:100543000CB322C0D01204667005D0D022C322336C
:10055300D0D0501330E0EBC3E7960809E7960809BB
:10056300E7960809E7962220E0E4E6970809E6976C
:100573000809E6970809E6972200120497604F12CC
:1005830004A66012E7548066F612046F7011120419
:1005930066703B090909F4F618F618F618F62212E4
:1005A3000483701512045D08080860EAE6447FF6C8
:1005B30018768018E4F618F62212045D6016120409
:1005C300667012E4F608F608F608E65480F60909A0
:1005D3000918181822EAC0E0EBC0E0ECC0E0EDC057
:1005E300E0E687F0A4FBACF008E687F0A42CFCE47B
:1005F30035F0FA1809E687F0A42C4B60027401CA9F
:1006030035F0FCE433FB09E687F0D2F7A42CCB35B5
:10061300F0FC1908E687F0A42BCC35F0FBE433FD9E
:100623000819E687F0D2E7A42C4ACB35F0CD340085
:10063300FC09E687F0D2E7A42DCC35F0FDE433FACC
:100643000918E687F0D2F7A42CCD35F0CA3400FCA4
:1006530008E687F0D2E7D2F7A42ACC35F07A7E20D9
:10066300E70B0ACB33CBCD33CDCC33CC33CB3350A9
:10067300147004ED30E00ED2F1E4CD3DCDCC3CCC92
:100683003B5005DA05C2F1EB547FC63308E63392DB
:10069300F0FBE73309E733C39A502D2B70190C0D88
:1006A3004C4D70151806E608C333700D20F10AA2ED
:1006B300F013F6E418800B4024E4F630F002768061
:1006C30018F618F618F68024D33B14501074FFA2C2
:1006D300F013F6187680E418F618F6800FA2F013DC
:1006E300F618E63303F618ECF618EDF6D0E0FDD075
:1006F300E0FCD0E0FBD0E0FA221204A6604612042C
:1007030097603DE9687008F618F618F618F6227433
:100713008067F7120730090909748067F72212040A
:1007230097601D1204A67005191919801A12046F17
:10073300701F120483C37003E66733191919400746
:100743001818182208080874FFF618F618F618F691
:10075300221204836017120466702192F012045D62
:100763007019501720F014080808090909E7F6184A
:1007730019E7F61819E7F61819E7F62212045D606F
:10078300E6E869701F0808E62480F608E436F618E0
:10079300547FB47F0CE654806007F6E418F618F62D
:1007A30022181822E9C6CC08C6CD08C6CE08C6CF83
:1007B300C0E0E8C0E0EAC0E0EBC0E009E9F809E71F
:1007C300FA09E7FBE6F918E6F8C3EC98ED99EE9A17
:1007D300EBC2E7F5F0EFC2E795F0500E600CEBCFFC
:1007E300FBEACEFAE9CDF9E8CCF8EAA2E7D2E7FAD8
:1007F300EB33FB13F5F0EEA2E7D2E7FEEF33FFC5D1
:10080300F013A2E730E601B313C5F0C3C0E0C0F0B4
:100813007F00C39BFB605E9418600F401D14601A39
:10082300D0E023F9D0E0F80209028AF0E948600336
:10083300D2F0E4AFF0FAF9F8803BEB30E40D89F045
:10084300EA6003D2F0E4AFF0F9CAF8EB30E30D88C5
:10085300F0EF6002D2F0AFF0E4CAC9F8EB540760DE
:1008630014FBC3EA13FAE913F9E813F8EF13500280
:10087300D2E0FFDBEDD0E0C0E030E739C3E49FFF17
:10088300F5F0EC98FC42F0ED99FD42F0EE9AFE4251
:10089300F0D0E0F9D0E0F8E5F0607AE923F9EE2052
:1008A300E742D8028067C3EF33FFEC33FCED33FD3F
:1008B300EE33FE80EAEC28FCED39FDEE3AFED0E0A3
:1008C30023F9D0E0F84002801BC3EE13FEED13FDC5
:1008D300EC13FCEF135002D2E0FF08B800067F7F51
:1008E30074FF802EEF3350178CF020F00260100C51
:1008F300BC000C0DBD00080EBE000408E860DFE973
:1009030033E813FFEE2313FE4F4D4C8008E9548068
:10091300FFE4FEFDFCEE33EF33F47004FCFD7E8058
:10092300D0E0FBD0E0FAD0E0F8D0E0CFC618CEC6D6
:1009330018CDC618CCC6F9221204977004181818DB
:10094300221204A6700D74FFF61819F61819F6187A
:1009530019F622E7548066F612045D700F120466DE
:1009630070F014F608F608F608F680D112046670E3
:100973000CF608F608768008E6447F80EC120486BD
:10098300700C12047260BFE65480F6E480BB12045C
:1009930072700519191980A5E869700C763F1876ED
:1009A3008018F618F6E8F922E6CDC0E018ECC0E0AE
:1009B300E633CD33CDD313F6E719FCE7191933CC5E
:1009C30033C3947F400ECD9D502408E65480F6E453
:1009D30018F6800FF4043D14501408E6447FF6180B
:1009E3007680E418F618F6D0E0FCD0E0FD22CCD3F4
:1009F30013CCFD18E4C6CBC0E018E4C6CAC0E008B7
:100A030008ED08C633E613F618E433C675F003C3DE
:100A1300CA97CA09CB97CB199C40047D08802EBD89
:100A23000003020AE416B6FF050606081618C3CA31
:100A330033CACB33CB33CA27CA09CB37CB193CC311
:100A43007D08803E187D0820E75CC633C6CA33CADA
:100A5300CB33CB33DDF1D5F0EB30E77BCA97CA0953
:100A6300CB974ACB199C406F4B7025E620E0218041
:100A730066187D08C3CA97CA09CB97CB199CD3C6FE
:100A830033C6CA33CACB33CB3350C9DDE7D5F0E124
:100A9300D3E4C636C608C636C608C636C608C63642
:100AA300C61818188031C3CA97CA09CB97CB199CAB
:100AB300B34097C633C6CA33CACB33CB33DD34D541
:100AC300F02EC6A2E0C640C8CA27CA09CB37194AC6
:100AD30070BECB3CB480B90808E63308E633601F28
:100AE300181818D0E0FAD0E0FBD0E0FCD0E0FD22EB
:100AF300187D08CA27CA09CB37CB193CD38080138A
:100B0300F618E4B67F11F618B6FF0EF618C6047091
:100B1300D20808768080CAF618F618F680C5080849
:100B230008EAC0E0EBC0E086F0E7A4FA180986F013
:100B3300E7A42AFA180986F0E7A42AFA180986F026
:100B4300E7A42AFA1986F0E7A4FBE5F02AFA1908C4
:100B530086F0E7A42BFBE5F03AFA190886F0E7A440
:100B63002BFBE5F03AFA18180986F0E7A4C5F02B39
:100B7300FBE43AFA1908E7C5F0C6A426F6E5F03B0C
:100B8300FBE43AFA1886F0E7A4F6E5F00826F6E463
:100B93003B08F6E43A08F6D0E0FBD0E0FA22E4CFD3
:100BA300C0E0E4CEC0E0E4CDC0E0E4CCC0E075F04A
:100BB30020E626F608E633F608E633F608E633F6CB
:100BC300181818EC33FCED33FDEE33FEEF33FFC39F
:100BD300EC9709ED9709EE9709EF97191919400F4B
:100BE300FFEC97FC09ED97FD09EE97FE191906D561
:100BF300F0BFECF709EDF709EEF709EFF71919194B
:100C0300D0E0FCD0E0FDD0E0FED0E0FF22181818C1
:100C1300E4C396F608E496F608E496F608E496F636
:100C230022E0F608A3E0F608A3E0F608A3E0F62224
:100C3300E6F008A3E6F008A3E6F008A3E6F022E056
:100C4300FAA3E0FBA3E0FCA3E0FD22E0F8A3E0F9B4
:100C5300A3E0FAA3E0FB22E8F0A3E9F0A3EAF0A300
:100C6300EBF022CAC0E0E6F0A308DAFAD0E0FA22F9
:100C7300CAC0E0E0A3C582CCC582C583CDC583F0DD
:100C8300A3C582CCC582C583CDC583DAE6D0E0CACD
:100C930022C3E498F8E499F9120CD58026C3E49AA8
:100CA300FAE49BFBE920E7E9120CD5E498F8E49910
:100CB300F922C3E498F8E499F9120CD5E498F8E41E
:100CC30099F9C3E49AFAE49BFB22EB20E7CFE920EE
:100CD300E7E0B90010BB0008E88AF084F8AAF02224
:100CE300E4FBC8FA22EB70227B10C833C8C933C9AE
:100CF300335007C39AC3DBF280069A50012ADBEA1A
:100D0300C833F4C8C933F4C9FA2275F008E4C83308
:100D1300C8C933C933C99AC99B5004C92AC93BD529
:100D2300F0ECFBC833F4C8E4C9FA22600C08C6C36C
:100D330013C618C613C6D5E0F422700422600D183A
:100D4300C6C333C608C633C6D5E0F418222510102F
:100D5300AF08F510400C15118008F510400215116D
:100D6300D2AF2200C0D0251010AF08F510500C05EB
:100D7300118008F51050020511D2AFD0D0222510F2
:100D8300F58210AF08F510400C15118008F51040DE
:100D9300021511D2AF851183222510F582E4351196
:100DA300F583222510F8E43511F9222510FAE435EC
:100DB30011FB222510FCE43511FD22E4732510C537
:100DC30082C0E0E51134FFC583C0E0E510C395821E
:100DD30024F810AF0885831185821080088583115C
:100DE300858210D2AFCEF0A3E520F0A37808E60801
:100DF300F0A3DEFAEFF0A3E58124FAF8E608F0A306
:100E0300E608F0A3E608F0A30808E608F0A3E6085E
:100E1300F0A315811581D0E0FED0E0F8158115818E
:100E23001581E8C0E0EEC0E022851183851082E0E1
:100E3300A3FEE0A3F5207808E0A3F608DFFAE0A319
:100E4300FFE0A3C0E0E0A3C0E0E0A3C0E0E0A3C0F4
:100E5300E0E0A3C0E010AF0885821085831180080D
:100E6300858210858311D2AFD083D0820200EFC078
:100E7300D02510C582C0E0E51134FFC583C0E0E58D
:100E830010C3958224F310AF0885831185821080E7
:100E930008858311858210D2AFC8F0A3E9F0A3EAD5
:100EA300F0A3EBF0A37908E709F0A3D8FAECF0A3D9
:100EB300EDF0A3EEF0A3EFF0A3D0E0F0A3D0E0F0C9
:100EC300A3D0E0F0A3E520F0A3E5F0F0A322851181
:100ED30083851082E0C0E0A3E0F9A3E0FAA3E0FB7E
:100EE300A37808E0F608A3DFFAE0FCA3E0FDA3E0A3
:100EF300FEA3E0FFA3E0C0E0A3E0C0E0A3E0F5D0E1
:100F0300A3E0F520A3E0A3F5F010AF0885831185D6
:100F130082108008858311858210D2AFD082D0835E
:100F2300D0E0F8D0E032740280027401C0E0F4042F
:100F3300120D81D0E0120C662274028000CCC0E056
:100F4300EDC0E0E510C39CCCAD1150011D10AF0600
:100F53008C108D1180068C108D11D2AF120C73D0B2
:100F6300E0FDD0E0FC22EAF5C1A2E950FCC2E9228F
:100F7300C0E074F2120E72A2AFE433FEC2AFE5E931
:100F8300A2E650209002FCE0F8A3E0F9E849600EE5
:100F93009002FCE0F8A3E0F5838882120DBE759BF6
:100FA3000053E9BFEEF8EEA2E092AF7F01020ED14B
:100FB30074F0120DC074FD120D507402120D9CE9F1
:100FC300F08A088B098C0A8D0B7415120D9CE0FEB8
:100FD300A3E0FF851082851183E4F0A3F08E828F56
:100FE30083A3AA82AB839003FB780C120C247808AA
:100FF300790C1204B570118E828F83746912149E5A
:10100300746EF0A374668018780879081204B560CA
:10101300188E828F83746E12149E7461F0A3746EA3
:10102300F0A30A0AAB8302143D9003FF780C120C61
:10103300247808790C1204E150030210E0900403B1
:10104300780C120C247808790C1204B56003021191
:10105300347417120D9CE07003021176851082859B
:101063001183C082C0837413120D9C121EF2D083AD
:10107300D082121477502F851082851183C3E09498
:10108300FCA3E094FFA2D265D033401A7402120D80
:101093009CE4121FE2F8A3E0F97413120D9CC3E061
:1010A30098F0A3E099F07413120D9C121494741821
:1010B300120D9CE070030211737417120D9CE4026D
:1010C3001175900407780C120C247808790C120916
:1010D3003B851082851183E0240A12200090040BC3
:1010E300780C120C247808790C1204E140D4900493
:1010F3000F780C120C247808790C1204E1400302D7
:10110300105490040F780C120C247808790C1209EF
:101113003B121FF780D8900407780C120C24780830
:10112300790C12057C851082851183E024F6121454
:1011330097900413780C120C247808790C1205305C
:1011430040D49003FF780C120C247808790C120514
:1011530030400302105490040F780C120C247808CA
:10116300790C12057C85108285118312149480D228
:101173007401F07402120D9CE060057A0002120300
:10118300121483507F8E828F837430F0EAFEEBFF5C
:101193007413120D9CE0FCA3E0FDEC4D7008741871
:1011A300120D9CE0600B8E828F83742EF0A30EAF22
:1011B300837A007B0080118E828F8374301214BF78
:1011C3007413120D9C121494EA24FF1AEB34FFFBE0
:1011D30085108285118312146B500C7413120D9CAD
:1011E300121EF2E84970D085108285118374FFC303
:1011F3009CF874FF9DF912147750030213557A017A
:101203007B00807B851082851183121EF2C3E498D4
:10121300FAE499FB806985080C85090D850A0E851A
:101223000B0F780C1203CEAC0CE50D3395E0F50EE5
:10123300F50F780C1203567808790C1206FC90040B
:101243000F780C120C247808790C12057CEC12141C
:10125300B9EAF8EBF9E824010AE439FBE849701F1D
:101263007413120D9C121EF2E84970087418120DC3
:101273009CE0600B8E828F83742EF0A30EAF837479
:1012830013120D9C12146B508D900417780C120CD2
:10129300247808790C1204E140030213557C01EE13
:1012A30024FFF8EF34FFF97415120D9CE0F508A341
:1012B300E0F50988828983E0642E6010E02CF064F5
:1012C3003A70077430F07C0180027C00E8FAE9FB95
:1012D300EA24FF18EB34FFF9C3E5089AE5099B40BC
:1012E300D2ECA2E0506C7402120D9CE0603BEEF86D
:1012F300EF800DEC88828983F0E824FF18E934FF3E
:10130300F9C3E50898E50999501A121447E0FC74EB
:101313002E6C70DFE824FEF582E934FFF5831214A6
:1013230054F980D5121FF7801E8E828F83A3AE825D
:10133300AF83EEF8EF8006121447121454F9C3E595
:101343000898E5099940F07415120D9C121F1C743E
:1013530031F07417120D9CE07005801C1EAF83EEF4
:1013630024FFF582EF34FFF583E0F874306860EC16
:10137300742E6870031EAF837402120D9CE0700319
:101383000214391214BBA3A9831214838E828F8390
:101393005014742DF00EE9FF851082851183121FFE
:1013A300341214AC8006742BF00EE9FF7C007D0030
:1013B300EE240AFE50010F0CEC70010D12145D12A5
:1013C3000CCDEA1214B912145D120CCD851082856E
:1013D3001183E8F0A3E9121FE24970DBC3EC940226
:1013E300ED121EB140D1ECFAEDFBC3E49CF8E49D91
:1013F300F9EE28F582EF39F583E0C0E0C3E49AF80B
:10140300E49BF9EE28F8EF39F9E82CF8E93DF9E81F
:1014130024F5F582E934FFF583D0E0F0EC24FF1CDA
:10142300ED34FFFDC3EC9401ED121EB150BCEE246C
:10143300F6FEEF34FFFFEEFAEFFB7403120D667F47
:1014430008020E2CE824FFFAE934FFFB8A828B831F
:1014530022E088828983F018EB228510828511832C
:10146300121F7A7A0A7B0022C3E09AA3E09BA2D2DE
:1014730065D03322C3E098A3E099A2D265D033228A
:10148300851082851183C3A3E09400A2D265D03373
:1014930022E024FFF0A3E034FFF022F0EAFEEBFFAA
:1014A3008E828F8322A3E03400F985108285118315
:1014B300E8F0A3E9F02224308E828F83F0A3AE827A
:1014C300AF832274F0120DC074AE120D50851082DA
:1014D300851183121FB07417120D9CECF0A3EDF06D
:1014E300740F120D9CE4F0A3801B7462120D9C1206
:1014F3001EE27417120D9C121F1C120DBE740F12E4
:101503000D9C121EB9F0121F56F9851082851183A6
:10151300E02401FAA3E03400FB85108285118312D5
:101523001FB07425696010E970C0740F120D9C120E
:101533001EE2745202143F121F566425701985105F
:1015430082851183E02401081214A87462120D9C91
:10155300121EE27925809B740E120D9CE4F0740D2B
:10156300120D9CE4F0740C120D9CE4F07405120D42
:101573009CE4F07420120DA67402120D9C1214B395
:10158300741E120D9C74C6F0A374038019740512A3
:101593000D9CE070077405120D9CEAF0851082859E
:1015A3001183E8F0A3E9121FE2121EA6121F4BFAE1
:1015B30024E060D924FD601724F860D924FE600676
:1015C30024FD600F8011740C120D9CE00480CC7418
:1015D3000D80F5740E80F1121F4B642A705C7464E5
:1015E300120D9C121F51FAA3E0FB8A828B83E0FC4D
:1015F300A3E0FD740A120D9CECF0A3EDF0EA2402C3
:10160300FA50010B7464120D9C121FA8740A120D78
:101613009C121489501F740A120D9C121EE2C3E41B
:101623009AFAE49BFB740A120D9C121FB0740C12FD
:101633000D9CE004F01214AD8043740A120D9CE477
:10164300F0A3802D740A120D9C121EE2EA75F00AB3
:10165300A4FAA9F075F00AEBA429FBEA28F8E43B05
:10166300F9E824D0F8E934FFF9740A120D9C12202A
:1016730007121FEFF874D028C3940A40C7740C12E2
:101683000D9CE06007740E120D9CE4F0121F56646B
:101693002E7079851082851183E0240108121F06BC
:1016A300E8F0A3E9121FEF642A70267464120D9CFC
:1016B300121F6F88828983E0FEA3E0FFE82402F80B
:1016C3005001097464120D9C121F3E122007F08012
:1016D3003F7E007F00121F6374D028C3940A5030EA
:1016E300EE75F00AA4FEA9F075F00AEFA429FFEE47
:1016F30028F8E43FF9E824D0FEE934FFFF8510829F
:10170300851183E02401F81214A880C97EFF7FFFAE
:101713007A00851082851183E02401F8121F06E008
:10172300FBA3E0F5838B82E024B4600824E4600625
:1017330024FC70057A011214AD121F638510828593
:101743001183E02401FCA3E03400FD8510828511A0
:1017530083ECF0A3EDF07404120D9CE8F070030227
:101763001D4D24BB7003021C1624FE7003021BF8DC
:1017730024EF700302194724F5700302183D147017
:10178300030219F2147003021C16147003021C14D2
:10179300147003021BF824FE70030219F224FB6089
:1017A3002414700302192B14700302194724FD70CB
:1017B3000302187424FE700302194724FD70030208
:1017C300193B021D597464120D9C121F96120D9C35
:1017D300121FBE120D9C121F6FE8FCE9FD74061266
:1017E3000D9CE02402F508A3E03400F509EAA2E029
:1017F300740F502F120D9C121EF23395E0FA8C8257
:101803008D83E8FCE9FDEAFEECF0A3EDF0A3EEF036
:10181300A3F07464120D9C121F1CE508F0A3E509E4
:10182300021508120D9C121EF28C828D831214B3C2
:101833007464120D9C121F3E80E07464120D9C129E
:101843001F69121F5EC0E07420120D9CD0E0F0747B
:1018530064120D9C121F1C121F80120D9C121F3E3E
:101863001214B37421120D9CA882A9837411021956
:10187300217464120D9C121F96120D9C121FBE122E
:101883000D9C121F96120D9CE02402FAA3E0340073
:10189300FB7464120D9C121FA87402120D9C121487
:1018A300B3E849700C7402120D9C74D7F0A374034F
:1018B300F0121EAF50047E107F277408120D9CE4B3
:1018C300F0A380087408120D9C121EB9F074021262
:1018D3000D9C121EF288828983A3AA82AB837402B1
:1018E300120D9C121FB088828983E0600A7408126B
:1018F3000D9C121EF640CD7402120D9C121ED07464
:1019030011120D9C1214B37408120D9C121F34F99A
:101913007411120D9CE028F8A3E039F97402120D3A
:101923009CE8F0A3E9021D70740D120D9CE06008A1
:10193300EE4F70047E017F00741E120D9C74E6F05E
:10194300A37403F07464120D9C121F96120D9C1263
:1019530014B37404120D9CE0647070327406120D9B
:101963009C121F8C120D9C121FC6120D9C121F80FD
:10197300120D9C121F3E1214B3741A120D9C741094
:10198300121FD0A3F07405120D9CE4021A7EEAA282
:10199300E07406501B120D9C121F1C120C4E741384
:1019A300120D9C120C5A7406120D9CE02404801232
:1019B300120D9C121F8C120D9C121FC6120D9CE05F
:1019C3002402121F83120D9C121F3E1214B37404BF
:1019D300120D9CE0646F7009741A120D9C740880D8
:1019E3009FE064757093741A120D9C740A8091744D
:1019F30064120D9C121F96120D9C1214B3EAA2E0FE
:101A030074065015120D9C121F1C7808120C2474B6
:101A130006120D9CE02404801B120D9C121F5CF522
:101A230008A3E0F5093395E0F50AF50B7406120DEA
:101A33009CE02402121F83120D9C121FD7120D9CCF
:101A43007808120C33900403780812033040217491
:101A530005120D9C742DF07413120D9C7808120C52
:101A6300247808120C137413120D9C7808120C338B
:101A7300741A120D9C740A121FD0A3F07451120D24
:101A83009CA882A9837402120D9C1214B3741112C0
:101A93000D9C121FDA120D9C120C4EE8494A4B6042
:101AA3000A7419120D9C7401F0800E7419120D9CA6
:101AB300E4F0EE4F7003021B687402120D9C121FB8
:101AC30016120D9C121FDA120D9C780C120C247442
:101AD3001A120D9C7808120C24780C7908120BA1A9
:101AE300741E120D9CE02508F8A3E035098882F5E1
:101AF30083E0C0E07402120D9C121F1CD0E0F0744E
:101B030013120D9C780C120C24741A120D9C780875
:101B1300120C24780C7908120BA17413120D9C7803
:101B23000C120C337413120D9C120C4EE8494A4BE1
:101B33007087121EAF502E740E120D9CE060267437
:101B430005120D9CE06004D2F08002C2F0740A1208
:101B53000D9C121EC2800E7402120D9C121FB6122F
:101B63000D9C121F2D7402120D9C121ED074511263
:101B73000D9CC082C0837402120D9C121EE2D0839E
:101B8300D082E582C39AFAE5839BFBC3EA9EEB12FC
:101B93001EFF40C3740D120D9CE07003021D71748F
:101BA30019120D9CE0A2E04003021D717404120D92
:101BB3009CE064786005E064587010E08882898353
:101BC300F0E824FF18E934FFF98017E0646F60033D
:101BD300021D717402120D9C121F516430700302B6
:101BE3001D717402120D9C121FB6120D9C121F1C44
:101BF3007430021D707408120D9C7401F0A3E4F09C
:101C03007404120D9CE024FEF0EE4F700F7E0180F1
:101C130012E4F07408120D9CE4F0A3F0121EAF500E
:101C2300047E067F007464120D9C121F96120D9C95
:101C3300121FBE120D9C121F1C780C120C2474066A
:101C4300120D9CE02404121F83120D9C121FD71245
:101C53000D9C780C120C339004037808120C247832
:101C63000C790812053050227405120D9C742DF066
:101C73007413120D9C7808120C24E50BB2E7F50BD4
:101C83007413120D9C7808120C33740A120D9C7491
:101C930020120DA68909E028F8A3E03509F974029A
:101CA300120D9C1214B3740D120D9CE0F508780804
:101CB300120F2D7409120D9CE0F5087808120F2DF0
:101CC3007404120D9C120F3C8E088F097808120FB2
:101CD30029740A120D9CE0F97419120D9C120C421E
:101CE3001203007406120D667411120D9C121FB0BC
:101CF300740E120D9CE060767405120D9CE0600476
:101D0300D2F08002C2F0740A120D9C121EC274112A
:101D1300120D9CC082C0837402120D9C121EF2D05D
:101D230083D082E0C398F8A3E099F9C3E89EE9124F
:101D33001EFF503A7402120D9C121F16120D9C12B4
:101D43001FB6120D9C121F2D80C48510828511832E
:101D5300121ED91214AC7402120D9C74F7F0A37402
:101D630003F07411120D9C74FAF0A37403F0741150
:101D7300120D9CC082C0837402120D9C121EF2D0FD
:101D830083D082E0C398FEA3E099FF740A120D9CEE
:101D9300121EF6500A7408120D9CE4F0A3803074EE
:101DA30005120D9CE06004D2F08002C2F0740A12A6
:101DB3000D9CE0C39EFAA3E09FFBA2F0E433F8EA94
:101DC30098F8EB9400F97408120D9CE8F0A3E9F07D
:101DD300740C120D9CE0702B80197462120D9C120E
:101DE3001EE8120D9C121F1C120DBE740F120D9CC7
:101DF300121FFD7408120D9C121F9C120D9C1214CD
:101E03008950D77405120D9CE060517462120D9CC9
:101E1300121EE27405120D9CE0F97417120D9C1248
:101E23001F1C120DBE802D7462120D9C121EE274D3
:101E330002120D9C121F5CF97417120D9C121F1CC9
:101E4300120DBE7402120D9CE0121EA67402120D36
:101E53009C1214B3740F120D9C121FFDEE24FF1E6F
:101E6300EF34FFFFC3121EB150BD740C120D9CE082
:101E730070030215097408120D9C121F9C120D9C0D
:101E830012148950030215097462120D9C121EE884
:101E9300120D9C121F1C120DBE740F120D9C121FEB
:101EA300FD80D22401F8A3E03400F922C3EF9400AB
:101EB300A2D265D03322E02401F0A3E0340022A2B1
:101EC300F0E433F8E098FEA3E09400FF22121ED45E
:101ED30022121ED9F922E024FFF8A3E034FF22E006
:101EE300FAA3E0FB22E0FAA3E0FB792074172212A5
:101EF3001F7A22C3E09EA3E0121EFF229FA2D26597
:101F0300D03322121F0A22A3E03400F98510828500
:101F1300118322121ED4740222121F2022121F24A4
:101F230022E0F8A3E0F583888222121F207430F0A8
:101F330022121F7AC3E498F8E49922121F4222E086
:101F4300FAA3E0F5838A8222851082851183121F0A
:101F530042E022851082851183E0F8121F26E022D9
:101F6300851082851183121F20E0F822121F73222D
:101F7300121F24121F7A22E0F8A3E0F922E02402C0
:101F8300F8A3E03400F9746422121F73E8FAE9FB42
:101F9300741322121F73740622E024FFF0A3E034AB
:101FA300FFF0740822E0FCA3E0F5838C82EAF0A33F
:101FB300EBF022E8F0A3E9F0740222E8F0A3E9F0E1
:101FC300740622EAF0A3EB121FD0740622F0A3E4F6
:101FD300F0A3F022121F42E8F0A3E9F074132212D7
:101FE3001FE622F0851082851183E022121FE6127C
:101FF3001F25E022851082851183E02401F0A3E0F0
:102003003400F022E8F0A3E9121FE62401F8121FBE
:102013000AE8F0A3E92274F7120DC0E9FEEAF8EB2F
:10202300F9E8FAE9FB740B2EC0E08A828B83D0E0D7
:10203300F0900207E0F8A3E0F5838882A3A3A3A3AB
:10204300A3E0600678617988800478417988E8C0E4
:10205300E08A828B83A3D0E0F0E4C9F8E8C0E08A89
:10206300828B83A3A3D0E0F0900200E0C0E08A82D9
:102073008B83A3A3A3D0E0F0900207E0F8A3E0F5DD
:10208300838882A3A3E0F8A3E0F98A828B83A3A3C6
:10209300A3A3E8F0A3E9F08A828B83A3A3A3A3A35A
:1020A300A3ECF0A3EDF0900207E0F8A3E0F583883A
:1020B30082E0F8A3E0F98A828B83A3A3A3A3A3A35B
:1020C300A3A3E8F0A3E9F0790A7F01020E2C74F7C9
:1020D300120DC0ECFEEDFF8908A908EAFCEBFD7ABE
:1020E300097B0212021CE9FD7C00802BECF87900CD
:1020F300EE28F582EF39F583E0C0E0EDFA7B00ECE2
:10210300F87900EA28F8EB39F9740928F5827402A2
:1021130039F583D0E0F00CECC3950840CFED2508EA
:10212300F97F01020E2C74F7120DC07E7C7F021220
:1021330002A01202527901EEFAEFFB1202888E829C
:102143008F83E0C2E7F08E828F83E0640570528E46
:10215300828F83E0F97A7D7B021202888E828F83DD
:10216300A3E0A2E55004D2F08002C2F0A2F0E4336F
:1021730090030EF07880790288828983A3E0A2E736
:10218300400302224B8E828F83A3A3A3E0F8900225
:1021930000E068600302224B9002017401F0022206
:1021A3004B8E828F83E024F590030BF08E828F8316
:1021B300E0F97A7D7B021202888E828F83A3E0A2EC
:1021C300E55004D2F08002C2F0A2F0E43390030E93
:1021D300F08E828F83A3A3A3A3A3A3A3A3E0F8A357
:1021E300E0F9900307E8F0A3E9F090030C7486F09C
:1021F300A37402F090030BE0F83395E0F990030C1D
:10220300E028F8A3E039F988828983E090030FF08E
:1022130088828983A3E0A2E75022900306E0F88E28
:10222300828F83A3A3A3E06860128E828F83A3E0CF
:1022330054DF644170069003107401F08E828F8323
:10224300A3A3A3E0900306F01202581202A67F0193
:10225300020E2C74F7120DC0EAFEEBFF12026AE9BC
:102263006401700479018079120258900207EEF03C
:10227300A3EFF090030C7400F0A37400F09002023B
:102283007401F07C007D007E007F00900203ECF07F
:10229300A3EDF0A3EEF0A3EFF0900207E0F8A3E0C4
:1022A300F5838882A3A3A3A3E0F912027090020727
:1022B300E0F8A3E0F5838882E0FAA3E0FB1202765C
:1022C300900207E0F8A3E0F5838882A3A3E0FAA3D2
:1022D300E0FB12027C7A287B021202AC12025279D2
:1022E300007F01020E2C74F4120DC0EAFEEBFF8C8A
:1022F3000A8D0B8909900202E07003120294E5092A
:10230300C394675005850908800375086785080924
:102313001202B21202A0A909AC0AAD0BEEFAEFFB4E
:10232300120222E9F97A097B021202821202A61230
:10233300028EE960027E01900207E0F8A3E0F583D4
:102343008882A3A3A3A3A3E0601C9002017400F0FE
:102353007A4A7B0212025E900201E06004740080FC
:10236300027401FE80027E00900202E070031202FA
:102373009AEE7007900200E02401F0EEF97F040268
:102383000E2CC082C0839002027400F012029AD015
:1023930083D0820200EF74F4120DC043F30275B6CA
:1023A300B143B43043B440E5B4A2E750FAE5BA13FD
:1023B30013543FF508750900E5BBF50A750B007466
:1023C30006780A120D3DE50A4508F508E50B4509AF
:1023D300F50974027808120D2EAA08AB097F0402CE
:1023E3000E2C53BEFBE59EA2E650FA53C6B843BE7D
:1023F300040200EF53F4FC43FE03D290D291020097
:10240300EF43F30C53F1FE53FF3F7586C075C50AC6
:1024130075C23BE94A42C40200EF89C1A2E950FCFC
:10242300C2E90200EF74F7120DC0EAFEEBFF80125F
:102433008E828F83E0F91202DC8E828F83A3AE82B9
:10244300AF838E828F83E070E77F01020E2C74F4DA
:10245300120DC074E2120D501202C48A0A8B0B854E
:102463000A08850B0990036B740A120DB6741412D3
:102473000C737808120F297C7F7D03740C120DAE48
:1024830012031E7402120D66740A120DAE1202E2DA
:102493007808120F297C877D037402120DAE120394
:1024A3001E7402120D66AA10AB111202E2741E1200
:1024B3000D667F04020E2CC082C0839003C0E0F837
:1024C300A3E0F9E875F06DA4C8AAF075F04EA42A4C
:1024D300FA75F06DE9A42AF9E82439F8E93430F9FA
:1024E300E854FFF8E9547FF99003C0E8F0A3E9F05A
:1024F3009003C0E0FAA3E0FBD083D0820200EF7424
:10250300F0120DC074F9120D507405120D9CEAF00F
:10251300A3EBF07403120D9CECF0A3EDF0E9C0E023
:102523007402120D9CD0E0F07401120D9C7407F03C
:102533007E0075080080010E7401120D9CE0F8EE18
:10254300C39840030225E3EEC3940A5004EEFF80D0
:10255300027F0AEFC0E0851082851183D0E0F07519
:102563000C01750D00851082851183E0780C120D26
:102573003DE50D3395E0F50EF50F1202EE8A088B5B
:1025830009E4F50AF50B7808790C120BA19003C244
:102593007808120C24780C7908120B21AA0CAB0DC5
:1025A30012026475080080097A057B001202640533
:1025B30008E508C3940340F07402120D9CE0F9741B
:1025C30003120D9CE0FCA3E0FD7405120D9CE0FAE0
:1025D300A3E0FB120234E9600302253A790080028A
:1025E30079017407120D667F08020E2C74F4120D24
:1025F300C074E2120D5012023A801C7A017B001261
:10260300024C7A647B001202647A017B0012024658
:102613007A847B031202641202C48A0A8B0B850A32
:1026230008850B097808120F297C8C7D037402122C
:102633000DAE12031E7402120D661202E8AA10AB4D
:102643001112032A8A0A8B0BA80AA90BE82401F9A1
:10265300AC10AD117A027B411202F4E9FE9003043F
:10266300E02401F50AA3E03400F50B900304E50A26
:10267300F0A3E50BF07808120F29780A120F297AD4
:10268300977B031203127404120D66EE7003022586
:10269300FE7A017B0012024C7AF47B011202647A07
:1026A300017B001202467AF47B0112026402261AAD
:1026B3001202CA1202D07A0079001202D61202BEA6
:1026C30012026AE96401700312024090030074105D
:1026D300F0A37414F09003027418F09003037401D0
:1026E300F09002FE7401F0A37441F07AFE7B0212B3
:1026F300022EE9640170031202401202FA0200EF93
:1027030074F6120DC074DA120D507E0080167A1220
:102713007B031203127AFA7B001202647AFA7B00BB
:102723001202640EEEC3940240E47AFA7B001202B2
:10273300647AFA7B0012026490031F7408120DB6C8
:10274300741E120C737A0C7B78780079008023EA6C
:1027530028F582EB39F583E0C0E08510828511838B
:10276300E58228F582E58339F583D0E0F008E87047
:102773000109C3E89408E99400A2D265D03340CF9D
:102783007C3D7D037408120DAE12032485108285EF
:102793001183E0F5087509007808120F29740312F4
:1027A3000D9CE0F5087509007808120F29740612CC
:1027B3000D9CE0F5087509007808120F29740912B9
:1027C3000D9CE0F5087509007808120F29740C12A6
:1027D3000D9CE0F5087509007808120F29740F1293
:1027E3000D9CE0F5087509007808120F2974121280
:1027F3000D9CE0F5087509007808120F297415126D
:102803000D9CE0F5087509007808120F297C437DBB
:1028130003741D120D9CAA82AB8312031E74101243
:102823000D667424120D9C747DF07E00801774086D
:10283300120DAE1203127AFA7B001202647AFA7B4B
:10284300001202640EEEC3940240E37426120D6676
:102853007F02020E2CC082C083906189E04460F045
:102863009061FA7409F09061B27415F09061AE74DE
:1028730000F01202B81202A67900D083D0820200BF
:10288300EFC082C08375F005E9A424D490618FF072
:10289300D083D0820200EFC082C083EA906174F0DB
:1028A300E4CBFAEA906175F0D083D0820200EFC0E6
:1028B30082C083EA906172F0E4CBFAEA906173F02C
:1028C300D083D0820200EFC082C08375E1EE7591A0
:1028D300FD78008010E8FC7D00EA2CF582EB3DF5E5
:1028E30083E0F5D908E8C39940EBD083D082020096
:1028F300EFC082C0838015E5D9C0E08A828B83D084
:10290300E0F08A828B83A3AA82AB8319E970E8D0B3
:1029130083D0820200EF75E1E9E591A2E150FA75F7
:1029230091FD79000200EF75E1EC75E1E30200EF40
:1029330075E1EF75E1EC0200EFC082C0839061A303
:10294300E0C2E6F0539AFED083D0820200EFC08249
:10295300C0839061A3E0D2E6F0439A01D083D08292
:102963000200EFC082C083A2AFE433F8C2AF90028B
:10297300FCEAF0A3EBF0E8F9E8A2E092AFD083D051
:10298300820200EFC082C083906193E0542270F80A
:10299300D083D0820200EF0200EFC082C0838A821C
:1029A3008B83122A2AE9F08A828B83E02401FCA319
:1029B300E03400FD8A828B83ECF0A3EDF0D083D06A
:1029C300820200EF74F6120DC074FC120D507402F3
:1029D300120D9CEAF0A3EBF0ECFAEDFB740E120D72
:1029E300A6851082851183E8F0A3E9F0A810A91148
:1029F300880889097808120F297404120DA688081B
:102A030089097808120F297C187D031203067404C0
:102A1300120D667402120D9C122A2AE4F074041239
:102A23000D667F02020E2CE0F8A3E0F58388822274
:102A3300EEC0E0E9FA7B00120F69D0E0FE0200EF7E
:102A430074F6120DC074FE120D50740C120DA6858F
:102A53001082851183E8F0A3E9F0A810A911880872
:102A630089097808120F29E4F508F5097808120F87
:102A7300297C0C7D031203067404120D6674021282
:102A83000D667F02020E2CEBC313FBEA13FAEAF87E
:102A9300EBF9E824FFFAE934FFFBE849601300008F
:102AA30000000000000000000000000000000080A3
:102AB300DD0200EF74F7120DC0EAFEEBFFEEF8EF54
:102AC300F9E824FFFEE934FFFFE84960097AE87B6F
:102AD3000312025E80E77F01020E2CEAA2E050029D
:102AE300D290EA54026003859090EA54046003850F
:102AF3009090EA54086002D2A00200EFEAA2E050EC
:102B030002C290EA54026003859090EA5404600381
:102B1300859090EA54086002C2A00200EF74F71295
:102B23000DC0EAF8EBF98005A3AA82AB838A828BF6
:102B330083E070F48C828D83E0FEA3AC82AD838A44
:102B4300828B83F0A3AA82AB8370E9E8FAE9FB7F67
:102B530001020E2CC082C0838A828B838001A3E092
:102B630070FCE582C39AFAE5839BFBD083D0820293
:0E2B730000EFD2AF0200EFC2AF0200EF80FE13
:04000005000000D720
:00000001FF
