:020000040000FA
:030000000200D724
:03001300020EEEEC
:10008300020EAE00000080FBE49002007898790134
:100093008002F0A3D8FCD9FA7A977B029001077803
:1000A3002979028015E493A3AD82AE838A828B8380
:1000B300F0A3AA82AB838D828E83D8E9D9E77582B8
:1000C3006D75832374001200E9758286758300744D
:1000D300001200E975D0007581BF7510007511021B
:1000E300759F0002008BC09FF59FE473D09F22D0C1
:1000F30083D082C09FE493C0E0740193C0E0740294
:1001030093F59F22FF0000000000000000000000A4
:10011300497B545950453D30323130317D00000028
:1001230000000000000000000000000000000000CC
:100133000000000000000000000000007B4D414370
:100143003D00253032583A253032583A253032585E
:100153003A253032583A253032583A253032583A17
:10016300253032583A253032580048756D69646934
:1001730074790048756D69646974793D0054656DDF
:10018300703D004C69676874004C696768743D0092
:100193007B54656D703D25642C2048756D696469D9
:1001A30074793D25642C204C696768743D25642C63
:1001B3002044373D25647D0D0A007B646174613DF5
:1001C30072656376206E6F64652073746172742048
:1001D30075702E2E2E7D003031323334353637385C
:1001E3003941424344454600286E756C6C20706F5C
:1001F300696E7465722900303132333435363738DD
:1002030039616263646566003F3F3F000000807FA1
:100213000000803F00000000F9021550B743BA51B7
:100223000000204100E7DB2E0000A0401200F26F27
:100233001F001200F29C20001200F22F2100120076
:10024300F23F21001200F2EA21001200F29228008C
:100253001200F28828001200F28D28001200F249E1
:1002630027001200F27627001200F25E250012002A
:10027300F28A25001200F29A25001200F2B025003E
:100283001200F2C825001200F2E025001200F20568
:1002930026001200F20E26001200F223260012009E
:1002A300F23826001200F25926001200F209240047
:1002B3001200F2FE21001200F29322001200F2CB90
:1002C30023001200F2DD23001200F2EA23001200E1
:1002D300F2090F001200F21C14001200F2ED2700C5
:1002E3001200F2F226001200F20227001200F25C62
:1002F30026001200F28626001200F23328001200B4
:10030300F26A28001200F29D2700C008C3E096F5A8
:100313000808A3E096420808A3E096420808A3E071
:10032300964208A2D265D033E5087001D3D00822E3
:10033300080808E630E711120B6D12034B08080892
:10034300C64480C618181822181818E9799EC608DA
:10035300CAC608CBC608CCC6C370207996CACBCC14
:100363007019798ECBCC70137986CC700EF9802AF4
:10037300CA33CACB33CBCC33CC331930E7F2CCCB33
:10038300CA3350147004EA30E00DE4CA3ACACB3BD6
:10039300CBCC3CCC500209C3E913C6CC182313C6FB
:1003A300CB18C6CA18C6F9221203EB20F01430E7A3
:1003B3002B74FFFCFBFA747F8022E4FCFBFA74804D
:1003C300801AB48008BC00F2BB00EF800F50EBF939
:1003D300E4C39AFAE49BFBE49CFCE499C6CC18C6FC
:1003E300CB18C6CA18C6F922E4C9C608CAC608CBC0
:1003F300C6D3330308CCC63392F0C3947F402E9404
:10040300184019C9B90704CACBCC225025C309CA5D
:1004130033CACB33CBCC33CC33D9F422F4600DC9FC
:10042300CCC313CB13CBCA13CAD9F6CC22E4FCFB3F
:10043300FA2214FCFBFA22E626184618461846222E
:10044300E72719471947194722181818E6084608D5
:100453007009E626087005E633F4220822191919F3
:10046300E70947097009E727097005E733F422090B
:1004730022E6084608C3134608336002E633F42233
:10048300E7094709C3134709336002E733F422122C
:1004930004746025120483602012043A700302047A
:1004A30043080808E76670101819E766700A1819F8
:1004B300E76670041819E76622F422120474601CBC
:1004C300120483601712043A70071204437001D3B5
:1004D30022C0D01204437006D0D0B322C32233D03B
:1004E300D0501430E0F6C3E7960809E7960809E709
:1004F300960809E796B32220E0D5E6970809E69720
:100503000809E6970809E697B322120474601B12E0
:100513000483601612043A7007120443600CB3227A
:10052300C0D01204437005D0D022C32233D0D050A0
:100533001330E0EBC3E7960809E7960809E7960846
:1005430009E7962220E0E4E6970809E6970809E61A
:10055300970809E6972200120474604F120483601F
:1005630012E7548066F612044C7011120443703B78
:10057300090909F4F618F618F618F6221204607041
:100583001512043A08080860EAE6447FF6187680F4
:1005930018E4F618F62212043A6016120443701295
:1005A300E4F608F608F608E65480F609090918186F
:1005B3001822EAC0E0EBC0E0ECC0E0EDC0E0E68763
:1005C300F0A4FBACF008E687F0A42CFCE435F0FAC9
:1005D3001809E687F0A42C4B60027401CA35F0FCBD
:1005E300E433FB09E687F0D2F7A42CCB35F0FC19F2
:1005F30008E687F0A42BCC35F0FBE433FD0819E6BD
:1006030087F0D2E7A42C4ACB35F0CD3400FC09E6C1
:1006130087F0D2E7A42DCC35F0FDE433FA0918E6D0
:1006230087F0D2F7A42CCD35F0CA3400FC08E68756
:10063300F0D2E7D2F7A42ACC35F07A7E20E70B0A72
:10064300CB33CBCD33CDCC33CC33CB33501470043D
:10065300ED30E00ED2F1E4CD3DCDCC3CCC3B5005AA
:10066300DA05C2F1EB547FC63308E63392F0FBE7B9
:100673003309E733C39A502D2B70190C0D4C4D7071
:10068300151806E608C333700D20F10AA2F013F61D
:10069300E418800B4024E4F630F002768018F61854
:1006A300F618F68024D33B14501074FFA2F013F60F
:1006B300187680E418F618F6800FA2F013F618E601
:1006C3003303F618ECF618EDF6D0E0FDD0E0FCD0DD
:1006D300E0FBD0E0FA221204836046120474603D0A
:1006E300E9687008F618F618F618F622748067F7AA
:1006F30012070D090909748067F722120474601D3B
:100703001204837005191919801A12044C701F12F0
:100713000460C37003E667331919194007181818E2
:100723002208080874FFF618F618F618F6221204C1
:10073300606017120443702192F012043A7019504A
:100743001720F014080808090909E7F61819E7F64D
:100753001819E7F61819E7F62212043A60E6E86971
:10076300701F0808E62480F608E436F618547FB4B0
:100773007F0CE654806007F6E418F618F622181882
:1007830022E9C6CC08C6CD08C6CE08C6CFC0E0E86D
:10079300C0E0EAC0E0EBC0E009E9F809E7FA09E7DD
:1007A300FBE6F918E6F8C3EC98ED99EE9AEBC2E78D
:1007B300F5F0EFC2E795F0500E600CEBCFFBEACEFD
:1007C300FAE9CDF9E8CCF8EAA2E7D2E7FAEB33FB92
:1007D30013F5F0EEA2E7D2E7FEEF33FFC5F013A265
:1007E300E730E601B313C5F0C3C0E0C0F07F00C338
:1007F3009BFB605E9418600F401D14601AD0E023C9
:10080300F9D0E0F80208DF8AF0E9486003D2F0E4A7
:10081300AFF0FAF9F8803BEB30E40D89F0EA6003BE
:10082300D2F0E4AFF0F9CAF8EB30E30D88F0EF60F3
:1008330002D2F0AFF0E4CAC9F8EB54076014FBC36B
:10084300EA13FAE913F9E813F8EF135002D2E0FFC1
:10085300DBEDD0E0C0E030E739C3E49FFFF5F0EC17
:1008630098FC42F0ED99FD42F0EE9AFE42F0D0E0A2
:10087300F9D0E0F8E5F0607AE923F9EE20E742D811
:10088300028067C3EF33FFEC33FCED33FDEE33FE41
:1008930080EAEC28FCED39FDEE3AFED0E023F9D0F6
:1008A300E0F84002801BC3EE13FEED13FDEC13FCD6
:1008B300EF135002D2E0FF08B800067F7F74FF8079
:1008C3002EEF3350178CF020F00260100CBC000C9C
:1008D3000DBD00080EBE000408E860DFE933E8132D
:1008E300FFEE2313FE4F4D4C8008E95480FFE4FED6
:1008F300FDFCEE33EF33F47004FCFD7E80D0E0FBAF
:10090300D0E0FAD0E0F8D0E0CFC618CEC618CDC6F6
:1009130018CCC6F922120474700418181822120491
:1009230083700D74FFF61819F61819F61819F622C4
:10093300E7548066F612043A700F12044370F01401
:10094300F608F608F608F680D1120443700CF60890
:10095300F608768008E6447F80EC120463700C127C
:10096300044F60BFE65480F6E480BB12044F700569
:1009730019191980A5E869700C763F18768018F666
:1009830018F6E8F922E6CDC0E018ECC0E0E633CD76
:1009930033CDD313F6E719FCE7191933CC33C394DA
:1009A3007F400ECD9D502408E65480F6E418F6806F
:1009B3000FF4043D14501408E6447FF6187680E4DF
:1009C30018F618F6D0E0FCD0E0FD22CCD313CCFD12
:1009D30018E4C6CBC0E018E4C6CAC0E00808ED08B6
:1009E300C633E613F618E433C675F003C3CA97CAD1
:1009F30009CB97CB199C40047D08802EBD000302D0
:100A03000AC116B6FF050606081618C3CA33CACBB1
:100A130033CB33CA27CA09CB37CB193CC37D0880F4
:100A23003E187D0820E75CC633C6CA33CACB33CB36
:100A330033DDF1D5F0EB30E77BCA97CA09CB974A90
:100A4300CB199C406F4B7025E620E0218066187D12
:100A530008C3CA97CA09CB97CB199CD3C633C6CA56
:100A630033CACB33CB3350C9DDE7D5F0E1D3E4C68A
:100A730036C608C636C608C636C608C636C61818E9
:100A8300188031C3CA97CA09CB97CB199CB3409737
:100A9300C633C6CA33CACB33CB33DD34D5F02EC607
:100AA300A2E0C640C8CA27CA09CB37194A70BECBD1
:100AB3003CB480B90808E63308E633601F181818F9
:100AC300D0E0FAD0E0FBD0E0FCD0E0FD22187D08B6
:100AD300CA27CA09CB37CB193CD3808013F618E455
:100AE300B67F11F618B6FF0EF618C60470D20808C2
:100AF300768080CAF618F618F680C5E4CFC0E0E425
:100B0300CEC0E0E4CDC0E0E4CCC0E075F020E62642
:100B1300F608E633F608E633F608E633F61818184F
:100B2300EC33FCED33FDEE33FEEF33FFC3EC9709FB
:100B3300ED9709EE9709EF97191919400FFFEC97F5
:100B4300FC09ED97FD09EE97FE191906D5F0BFECE8
:100B5300F709EDF709EEF709EFF7191919D0E0FCDA
:100B6300D0E0FDD0E0FED0E0FF22181818E4C396D1
:100B7300F608E496F608E496F608E496F622E0F61C
:100B830008A3E0F608A3E0F608A3E0F622E6F008DF
:100B9300A3E6F008A3E6F008A3E6F022E0FAA3E058
:100BA300FBA3E0FCA3E0FD22E0F8A3E0F9A3E0FA55
:100BB300A3E0FB22E8F0A3E9F0A3EAF0A3EBF02221
:100BC300CAC0E0E6F0A308DAFAD0E0FA22CAC0E02D
:100BD300E0A3C582CCC582C583CDC583F0A3C582FE
:100BE300CCC582C583CDC583DAE6D0E0CA22C3E48F
:100BF30098F8E499F9120C328026C3E49AFAE49B3C
:100C0300FBE920E7E9120C32E498F8E499F922C3EE
:100C1300E498F8E499F9120C32E498F8E499F9C3EA
:100C2300E49AFAE49BFB22EB20E7CFE920E7E0B963
:100C33000010BB0008E88AF084F8AAF022E4FBC89D
:100C4300FA22EB70227B10C833C8C933C93350076B
:100C5300C39AC3DBF280069A50012ADBEAC833F455
:100C6300C8C933F4C9FA2275F008E4C833C8C933D4
:100C7300C933C99AC99B5004C92AC93BD5F0ECFBB7
:100C8300C833F4C8E4C9FA22251010AF08F51040A0
:100C93000C15118008F51040021511D2AF2200C0C7
:100CA300D0251010AF08F510500C05118008F51071
:100CB30050020511D2AFD0D0222510F58210AF0813
:100CC300F510400C15118008F51040021511D2AF34
:100CD300851183222510F582E43511F58322251031
:100CE300F8E43511F9222510FAE43511FB22251019
:100CF300FCE43511FD22E4732510C582C0E0E51143
:100D030034FFC583C0E0E510C3958224F810AF0813
:100D13008583118582108008858311858210D2AF67
:100D2300CEF0A3E520F0A37808E608F0A3DEFAEFFF
:100D3300F0A3E58124FAF8E608F0A3E608F0A3E6B9
:100D430008F0A30808E608F0A3E608F0A315811548
:100D530081D0E0FED0E0F8158115811581E8C0E06F
:100D6300EEC0E022851183851082E0A3FEE0A3F5A7
:100D7300207808E0A3F608DFFAE0A3FFE0A3C0E0D1
:100D8300E0A3C0E0E0A3C0E0E0A3C0E0E0A3C0E0D4
:100D930010AF0885821085831180088582108583B2
:100DA30011D2AFD083D0820200EFC0D02510C5820C
:100DB300C0E0E51134FFC583C0E0E510C39582248C
:100DC300F310AF0885831185821080088583118510
:100DD3008210D2AFC8F0A3E9F0A3EAF0A3EBF0A32B
:100DE3007908E709F0A3D8FAECF0A3EDF0A3EEF04D
:100DF300A3EFF0A3D0E0F0A3D0E0F0A3D0E0F0A302
:100E0300E520F0A3E5F0F0A322851183851082E0AD
:100E1300C0E0A3E0F9A3E0FAA3E0FBA37808E0F6BF
:100E230008A3DFFAE0FCA3E0FDA3E0FEA3E0FFA339
:100E3300E0C0E0A3E0C0E0A3E0F5D0A3E0F520A389
:100E4300E0A3F5F010AF0885831185821080088533
:100E53008311858210D2AFD082D083D0E0F8D0E066
:100E630032740280027401C0E0F404120CBCD0E0BE
:100E7300120BC32274028000CCC0E0EDC0E0E51089
:100E8300C39CCCAD1150011D10AF068C108D118089
:100E9300068C108D11D2AF120BD0D0E0FDD0E0FC48
:100EA30022EAF5C1A2E950FCC2E922C0E074F212C1
:100EB3000DADA2AFE433FEC2AFE5E9A2E650209048
:100EC3000289E0F8A3E0F9E849600E900289E0F8AE
:100ED300A3E0F5838882120CF9759B0053E9BFEEFA
:100EE300F8EEA2E092AF7F01020E0CC0E0C0D0C2C8
:100EF3008BE5C124DF600824E17006C2908002D232
:100F030090D0D0D0E03274F0120CFB74FD120C8B35
:100F13007402120CD7E9F08A088B098C0A8D0B74C2
:100F230015120CD7E0FEA3E0FF851082851183E440
:100F3300F0A3F08E828F83A3AA82AB8390039F7862
:100F43000C120B817808790C12049270118E828F27
:100F53008374691213F4746EF0A3746680187808AE
:100F6300790812049260188E828F83746E1213F4C0
:100F73007461F0A3746EF0A30A0AAB830213939017
:100F830003A3780C120B817808790C1204BE50036A
:100F93000210369003A7780C120B817808790C1293
:100FA3000492600302108A7417120CD7E0700302D4
:100FB30010CC851082851183C082C0837413120CF8
:100FC300D7121E48D083D0821213CD502F851082A2
:100FD300851183C3E094FCA3E094FFA2D265D033D0
:100FE300401A7402120CD7E4121F38F8A3E0F97404
:100FF30013120CD7C3E098F0A3E099F07413120C0A
:10100300D71213EA7418120CD7E070030210C974D4
:1010130017120CD7E40210CB9003AB780C120B81A0
:101023007808790C120918851082851183E0240A47
:10103300121F569003AF780C120B817808790C12AB
:1010430004BE40D49003B3780C120B817808790C5A
:101053001204BE4003020FAA9003B3780C120B8153
:101063007808790C120918121F4D80D89003AB78B9
:101073000C120B817808790C1205598510828511A1
:1010830083E024F61213ED9003B7780C120B8178EA
:1010930008790C12050D40D49003A3780C120B8130
:1010A3007808790C12050D4003020FAA9003B37858
:1010B3000C120B817808790C120559851082851161
:1010C300831213EA80D27401F07402120CD7E06029
:1010D300057A000211591213D9507F8E828F8374BF
:1010E30030F0EAFEEBFF7413120CD7E0FCA3E0FD33
:1010F300EC4D70087418120CD7E0600B8E828F834E
:10110300742EF0A30EAF837A007B0080118E828F42
:101113008374301214157413120CD71213EAEA24D1
:10112300FF1AEB34FFFB8510828511831213C15024
:101133000C7413120CD7121E48E84970D085108224
:1011430085118374FFC39CF874FF9DF91213CD506E
:10115300030212AB7A017B00807B851082851183A9
:10116300121E48C3E498FAE499FB806985080C854C
:10117300090D850A0E850B0F780C1203ABAC0CE539
:101183000D3395E0F50EF50F780C120333780879DB
:101193000C1206D99003B3780C120B817808790CE2
:1011A300120559EC12140FEAF8EBF9E824010AE4EA
:1011B30039FBE849701F7413120CD7121E48E84913
:1011C30070087418120CD7E0600B8E828F83742E14
:1011D300F0A30EAF837413120CD71213C1508D906A
:1011E30003BB780C120B817808790C1204BE400300
:1011F3000212AB7C01EE24FFF8EF34FFF9741512F1
:101203000CD7E0F508A3E0F50988828983E0642E12
:101213006010E02CF0643A70077430F07C018002B7
:101223007C00E8FAE9FBEA24FF18EB34FFF9C3E595
:10123300089AE5099B40D2ECA2E0506C7402120CB0
:10124300D7E0603BEEF8EF800DEC88828983F0E80D
:1012530024FF18E934FFF9C3E50898E50999501A02
:1012630012139DE0FC742E6C70DFE824FEF582E916
:1012730034FFF5831213AAF980D5121F4D801E8EF9
:10128300828F83A3AE82AF83EEF8EF800612139DA5
:101293001213AAF9C3E50898E5099940F0741512E9
:1012A3000CD7121E727431F07417120CD7E070054C
:1012B300801C1EAF83EE24FFF582EF34FFF583E03D
:1012C300F874306860EC742E6870031EAF83740288
:1012D300120CD7E0700302138F121411A3A9831207
:1012E30013D98E828F835014742DF00EE9FF85106D
:1012F30082851183121E8A1214028006742BF00E4B
:10130300E9FF7C007D00EE240AFE50010F0CEC7017
:10131300010D1213B3120C2AEA12140F1213B31293
:101323000C2A851082851183E8F0A3E9121F38493E
:1013330070DBC3EC9402ED121E0740D1ECFAEDFB17
:10134300C3E49CF8E49DF9EE28F582EF39F583E0D8
:10135300C0E0C3E49AF8E49BF9EE28F8EF39F9E822
:101363002CF8E93DF9E824F5F582E934FFF583D05B
:10137300E0F0EC24FF1CED34FFFDC3EC9401ED120F
:101383001E0750BCEE24F6FEEF34FFFFEEFAEFFB30
:101393007403120CA17F08020D67E824FFFAE934F5
:1013A300FFFB8A828B8322E088828983F018EB22F9
:1013B300851082851183121ED07A0A7B0022C3E036
:1013C3009AA3E09BA2D265D03322C3E098A3E0990D
:1013D300A2D265D03322851082851183C3A3E09402
:1013E30000A2D265D03322E024FFF0A3E034FFF063
:1013F30022F0EAFEEBFF8E828F8322A3E03400F912
:10140300851082851183E8F0A3E9F02224308E82CF
:101413008F83F0A3AE82AF832274F0120CFB74AE01
:10142300120C8B851082851183121F067417120C00
:10143300D7ECF0A3EDF0740F120CD7E4F0A3801BEC
:101443007462120CD7121E387417120CD7121E7244
:10145300120CF9740F120CD7121E0FF0121EACF9F6
:10146300851082851183E02401FAA3E03400FB8513
:101473001082851183121F067425696010E970C0FC
:10148300740F120CD7121E387452021395121EAC2D
:1014930064257019851082851183E02401081213D5
:1014A300FE7462120CD7121E387925809B740E12BB
:1014B3000CD7E4F0740D120CD7E4F0740C120CD7B3
:1014C300E4F07405120CD7E4F07420120CE17402FA
:1014D300120CD7121409741E120CD7746AF0A37479
:1014E3000380197405120CD7E070077405120CD72A
:1014F300EAF0851082851183E8F0A3E9121F381200
:101503001DFC121EA1FA24E060D924FD601724F803
:1015130060D924FE600624FD600F8011740C120C48
:10152300D7E00480CC740D80F5740E80F1121EA1F7
:10153300642A705C7464120CD7121EA7FAA3E0FB32
:101543008A828B83E0FCA3E0FD740A120CD7ECF0D3
:10155300A3EDF0EA2402FA50010B7464120CD712C3
:101563001EFE740A120CD71213DF501F740A120CDA
:10157300D7121E38C3E49AFAE49BFB740A120CD701
:10158300121F06740C120CD7E004F01214038043EC
:10159300740A120CD7E4F0A3802D740A120CD7122C
:1015A3001E38EA75F00AA4FAA9F075F00AEBA4292B
:1015B300FBEA28F8E43BF9E824D0F8E934FFF974AE
:1015C3000A120CD7121F5D121F45F874D028C3945A
:1015D3000A40C7740C120CD7E06007740E120CD7C4
:1015E300E4F0121EAC642E7079851082851183E0BD
:1015F300240108121E5CE8F0A3E9121F45642A7057
:10160300267464120CD7121EC588828983E0FEA358
:10161300E0FFE82402F85001097464120CD7121E8B
:1016230094121F5DF0803F7E007F00121EB974D0BC
:1016330028C3940A5030EE75F00AA4FEA9F075F0A1
:101643000AEFA429FFEE28F8E43FF9E824D0FEE9E5
:1016530034FFFF851082851183E02401F81213FE05
:1016630080C97EFF7FFF7A00851082851183E02485
:1016730001F8121E5CE0FBA3E0F5838B82E024B447
:10168300600824E4600624FC70057A011214031236
:101693001EB9851082851183E02401FCA3E0340088
:1016A300FD851082851183ECF0A3EDF07404120C18
:1016B300D7E8F07003021CA324BB7003021B6C2445
:1016C300FE7003021B4E24EF700302189D24F57075
:1016D30003021793147003021948147003021B6C5E
:1016E300147003021B6A147003021B4E24FE700362
:1016F30002194824FB602414700302188114700338
:1017030002189D24FD70030217CA24FE70030218F9
:101713009D24FD7003021891021CAF7464120CD750
:10172300121EEC120CD7121F14120CD7121EC5E88E
:10173300FCE9FD7406120CD7E02402F508A3E0349B
:1017430000F509EAA2E0740F502F120CD7121E48BD
:101753003395E0FA8C828D83E8FCE9FDEAFEECF038
:10176300A3EDF0A3EEF0A3F07464120CD7121E7273
:10177300E508F0A3E50902145E120CD7121E488C8B
:10178300828D831214097464120CD7121E9480E0A4
:101793007464120CD7121EBF121EB4C0E074201260
:1017A3000CD7D0E0F07464120CD7121E72121ED63E
:1017B300120CD7121E941214097421120CD7A8828A
:1017C300A98374110218777464120CD7121EEC12D9
:1017D3000CD7121F14120CD7121EEC120CD7E024D4
:1017E30002FAA3E03400FB7464120CD7121EFE74D9
:1017F30002120CD7121409E849700C7402120CD7A8
:10180300747BF0A37403F0121E0550047E107F272F
:101813007408120CD7E4F0A380087408120CD712D2
:101823001E0FF07402120CD7121E4888828983A3FC
:10183300AA82AB837402120CD7121F068882898393
:10184300E0600A7408120CD7121E4C40CD740212C9
:101853000CD7121E267411120CD712140974081215
:101863000CD7121E8AF97411120CD7E028F8A3E0E2
:1018730039F97402120CD7E8F0A3E9021CC6740DFF
:10188300120CD7E06008EE4F70047E017F00741ED7
:10189300120CD7748AF0A37403F07464120CD71279
:1018A3001EEC120CD71214097404120CD7E06470E6
:1018B30070327406120CD7121EE2120CD7121F1CC0
:1018C300120CD7121ED6120CD7121E9412140974BE
:1018D3001A120CD77410121F26A3F07405120CD71A
:1018E300E40219D4EAA2E07406501B120CD7121EAC
:1018F30072120BAB7413120CD7120BB77406120CC3
:10190300D7E024048012120CD7121EE2120CD71255
:101913001F1C120CD7E02402121ED9120CD7121E60
:10192300941214097404120CD7E0646F7009741ACA
:10193300120CD77408809FE064757093741A120CAC
:10194300D7740A80917464120CD7121EEC120CD750
:10195300121409EAA2E074065015120CD7121E7273
:101963007808120B817406120CD7E02404801B1232
:101973000CD7121EB2F508A3E0F5093395E0F50A7A
:10198300F50B7406120CD7E02402121ED9120CD7E1
:10199300121F2D120CD77808120B909003A778080A
:1019A30012030D40217405120CD7742DF074131219
:1019B3000CD77808120B817808120B707413120C71
:1019C300D77808120B90741A120CD7740A121F26B8
:1019D300A3F07451120CD7A882A9837402120CD7F6
:1019E3001214097411120CD7121F30120CD7120BD8
:1019F300ABE8494A4B600A7419120CD77401F080A2
:101A03000E7419120CD7E4F0EE4F7003021ABE7471
:101A130002120CD7121E6C120CD7121F30120CD7E5
:101A2300780C120B81741A120CD77808120B817878
:101A33000C7908120AFE741E120CD7E02508F8A3CD
:101A4300E035098882F583E0C0E07402120CD712F6
:101A53001E72D0E0F07413120CD7780C120B817441
:101A63001A120CD77808120B81780C7908120AFE27
:101A73007413120CD7780C120B907413120CD71228
:101A83000BABE8494A4B7087121E05502E740E1299
:101A93000CD7E060267405120CD7E06004D2F08006
:101AA30002C2F0740A120CD7121E18800E740212AE
:101AB3000CD7121F0C120CD7121E837402120CD7F0
:101AC300121E267451120CD7C082C0837402120CEA
:101AD300D7121E38D083D082E582C39AFAE5839B5E
:101AE300FBC3EA9EEB121E5540C3740D120CD7E0E4
:101AF3007003021CC77419120CD7E0A2E040030262
:101B03001CC77404120CD7E064786005E064587055
:101B130010E088828983F0E824FF18E934FFF98014
:101B230017E0646F6003021CC77402120CD7121E05
:101B3300A764307003021CC77402120CD7121F0C67
:101B4300120CD7121E727430021CC67408120CD702
:101B53007401F0A3E4F07404120CD7E024FEF0EE59
:101B63004F700F7E018012E4F07408120CD7E4F07A
:101B7300A3F0121E0550047E067F007464120CD776
:101B8300121EEC120CD7121F14120CD7121E7278ED
:101B93000C120B817406120CD7E02404121ED91206
:101BA3000CD7121F2D120CD7780C120B909003A791
:101BB3007808120B81780C790812050D50227405F0
:101BC300120CD7742DF07413120CD77808120B81F2
:101BD300E50BB2E7F50B7413120CD77808120B90D0
:101BE300740A120CD77420120CE18909E028F8A3B7
:101BF300E03509F97402120CD7121409740D120C92
:101C0300D7E0F5087808120E687409120CD7E0F5CE
:101C1300087808120E687404120CD7120E778E0817
:101C23008F097808120E64740A120CD7E0F974193C
:101C3300120CD7120B9F1202D17406120CA174114D
:101C4300120CD7121F06740E120CD7E060767405BF
:101C5300120CD7E06004D2F08002C2F0740A120CB6
:101C6300D7121E187411120CD7C082C083740212CB
:101C73000CD7121E48D083D082E0C398F8A3E09912
:101C8300F9C3E89EE9121E55503A7402120CD7129A
:101C93001E6C120CD7121F0C120CD7121E8380C499
:101CA300851082851183121E2F1214027402120CE6
:101CB300D7749BF0A37403F07411120CD7749EF0C5
:101CC300A37403F07411120CD7C082C08374021280
:101CD3000CD7121E48D083D082E0C398FEA3E099AC
:101CE300FF740A120CD7121E4C500A7408120CD738
:101CF300E4F0A380307405120CD7E06004D2F080C6
:101D030002C2F0740A120CD7E0C39EFAA3E09FFB51
:101D1300A2F0E433F8EA98F8EB9400F97408120C93
:101D2300D7E8F0A3E9F0740C120CD7E0702B8019FC
:101D33007462120CD7121E3E120CD7121E72120CB2
:101D4300F9740F120CD7121F537408120CD7121EFA
:101D5300F2120CD71213DF50D77405120CD7E060C0
:101D6300517462120CD7121E387405120CD7E0F9A5
:101D73007417120CD7121E72120CF9802D74621292
:101D83000CD7121E387402120CD7121EB2F9741734
:101D9300120CD7121E72120CF97402120CD7E01235
:101DA3001DFC7402120CD7121409740F120CD712F3
:101DB3001F53EE24FF1EEF34FFFFC3121E0750BD57
:101DC300740C120CD7E0700302145F7408120CD762
:101DD300121EF2120CD71213DF500302145F746247
:101DE300120CD7121E3E120CD7121E72120CF9746B
:101DF3000F120CD7121F5380D22401F8A3E0340032
:101E0300F922C3EF9400A2D265D03322E02401F07B
:101E1300A3E0340022A2F0E433F8E098FEA3E094B8
:101E230000FF22121E2A22121E2FF922E024FFF89D
:101E3300A3E034FF22E0FAA3E0FB22E0FAA3E0FBF5
:101E43007920741722121ED022C3E09EA3E0121E33
:101E530055229FA2D265D03322121E6022A3E03402
:101E630000F985108285118322121E2A7402221220
:101E73001E7622121E7A22E0F8A3E0F583888222DE
:101E8300121E767430F022121ED0C3E498F8E4993F
:101E930022121E9822E0FAA3E0F5838A822285109B
:101EA30082851183121E98E022851082851183E0BA
:101EB300F8121E7CE022851082851183121E76E0C3
:101EC300F822121EC922121E7A121ED022E0F8A393
:101ED300E0F922E02402F8A3E03400F9746422124A
:101EE3001EC9E8FAE9FB741322121EC9740622E024
:101EF30024FFF0A3E034FFF0740822E0FCA3E0F534
:101F0300838C82EAF0A3EBF022E8F0A3E9F07402F9
:101F130022E8F0A3E9F0740622EAF0A3EB121F26ED
:101F2300740622F0A3E4F0A3F022121E98E8F0A3B3
:101F3300E9F0741322121F3C22F08510828511836D
:101F4300E022121F3C121E7BE02285108285118342
:101F5300E02401F0A3E03400F022E8F0A3E9121F2B
:101F63003C2401F8121E60E8F0A3E92274F7120C76
:101F7300FB7E097F021202951202537901EEFAEFFA
:101F8300FB1202898E828F83E0C2E7F08E828F83F9
:101F9300E0640570528E828F83E0F97A0A7B021225
:101FA30002898E828F83A3E0A2E55004D2F08002DF
:101FB300C2F0A2F0E43390029FF0780D7902888298
:101FC3008983A3E0A2E740030220918E828F83A33B
:101FD300A3A3E0F8900200E068600302209190025E
:101FE300017401F00220918E828F83E024F5900228
:101FF3009CF08E828F83E0F97A0A7B021202898E2B
:10200300828F83A3E0A2E55004D2F08002C2F0A243
:10201300F0E43390029FF08E828F83A3A3A3A3A344
:10202300A3A3A3E0F8A3E0F9900298E8F0A3E9F0F2
:1020330090029D7413F0A37402F090029CE0F833B5
:1020430095E0F990029DE028F8A3E039F9888289A8
:1020530083E09002A0F088828983A3E0A2E7502264
:10206300900297E0F88E828F83A3A3A3E0686012A7
:102073008E828F83A3E054DF644170069002A174C3
:1020830001F08E828F83A3A3A3E0900297F0120244
:102093005912029B7F01020D6774F7120CFBEAFED3
:1020A300EBFF12026BE9640170047901807912027B
:1020B30059900207EEF0A3EFF090029D7400F0A395
:1020C3007400F09002027401F07C007D007E007FBA
:1020D30000900203ECF0A3EDF0A3EEF0A3EFF09079
:1020E3000207E0F8A3E0F5838882A3A3A3A3E0F9A2
:1020F300120277900207E0F8A3E0F5838882E0FA02
:10210300A3E0FB12027D900207E0F8A3E0F58388C9
:1021130082A3A3E0FAA3E0FB1202837A2F7B0212CD
:1021230002A112025379007F01020D67C082C083AE
:102133009002A1E0F9D083D0820200EF74F2120C76
:10214300FB8A088B09890AECFEEDFF120259900203
:102153009CE0FA3395E0FBA80A7900C3EA98EB996F
:10216300A2D265D033500D90029CE0F50C3395E07C
:10217300F50D8006850A0C750D00780C120E64901F
:10218300029DE0FCA3E0FDAA08AB091202DD740284
:10219300120CA1EE4F6020120271E9F89002A0E048
:1021A300FA3395E0FB7900EAC398F8EB99F98E824C
:1021B3008F83E8F0A3E9F09002A17400F0120253B8
:1021C30090029CE0FA3395E0FBA80A7900C3EA98F1
:1021D300EB99A2D265D033500790029CE0F98002BC
:1021E300A90A7F06020D67C082C0839002027401B0
:1021F300F012028FD083D0820200EF74F2120CFB34
:102203008C0A8D0B7E007F00AC0AAD0B1203078A8C
:102213000C8B0D850C08850D09E508450970067AB8
:10222300FF7BFF8066AA0AAB0B1203018A0A8B0BA2
:10223300E508250AF508E509350BF509803AEE7539
:10224300F00AA4CEA8F075F000A428F875F00AEF00
:10225300A428FF850882850983E0F87900EE28F831
:10226300EF39F9E824D0FEE934FFFF8508828509B8
:1022730083A3858208858309850882850983E0C352
:102283009430C3940A40B7EEFAEFFB7F06020D6762
:1022930074F6120CFB7480120C8B80557C167D0334
:1022A300AA10AB111203078A088B09E508450960D8
:1022B300137C1C7D03AA10AB111202B3900295EAA2
:1022C300F0A3EBF0A290B3E433F5087509007808A6
:1022D300120E64900295120E77900293120E77906D
:1022E3000291120E777A237B031202E97408120C0F
:1022F300A112023BE960FA7C007D007980AA10AB51
:1023030011120241E9F87900C3E89401E99400A2AB
:10231300D265D03340DB851082851183E58228F5B1
:1023230082E58339F5837400F07CFD7D02AA10AB4E
:10233300111203078A088B09E50845097003022275
:102343009F7C067D03AA10AB111202B3900293EA9D
:10235300F0A3EBF07C107D03AA10AB111202B39033
:102363000291EAF0A3EBF00222C71202BF1202C5E8
:102373007A0079001202CB1202ADD2AFD2AA1202B6
:102383006BE96401700312024D90028D7410F0A387
:102393007414F090028F7418F09002907401F0900E
:1023A300028B7402F0A37441F07A8B7B0212023524
:1023B300E96401700312024D1202477A4D7B031246
:1023C30002E91202B90200EF53BEFBE59EA2E650FA
:1023D300FA53C6B843BE040200EF53F4FC43FE03B2
:1023E300D290D2910200EF43F30C53F1FE53FF3F1F
:1023F3007586C075C50A75C23BE94A42C4C28BD211
:10240300AAD2AF0200EF74F6120CFB74DA120C8B33
:102413007E0080167AA47B021202E97AFA7B00120C
:1024230002657AFA7B001202650EEEC3940240E461
:102433007AFA7B001202657AFA7B00120265900237
:10244300B17408120CF1741E120BD07A0C7B7878DD
:102453000079008023EA28F582EB39F583E0C0E0B8
:10246300851082851183E58228F582E58339F5831A
:10247300D0E0F008E8700109C3E89408E99400A2E9
:10248300D265D03340CF7CCF7D027408120CE912A1
:1024930002FB851082851183E0F508750900780831
:1024A300120E647403120CD7E0F50875090078085E
:1024B300120E647406120CD7E0F50875090078084B
:1024C300120E647409120CD7E0F508750900780838
:1024D300120E64740C120CD7E0F508750900780825
:1024E300120E64740F120CD7E0F508750900780812
:1024F300120E647412120CD7E0F5087509007808FF
:10250300120E647415120CD7E0F5087509007808EB
:10251300120E647CD57D02741D120CD7AA82AB8384
:102523001202F57410120CA17424120CD7747DF0EE
:102533007E0080177408120CE91202E97AFA7B0014
:102543001202657AFA7B001202650EEEC394024012
:10255300E37426120CA17F02020D67C082C0839030
:102563006189E04460F09061FA7409F09061B2749B
:1025730015F09061AE7400F01202A712029B79006D
:10258300D083D0820200EFC082C0839002A3E0F91F
:10259300D083D0820200EFC082C08375F005E9A426
:1025A30024D490618FF0D083D0820200EFC082C028
:1025B30083EA906174F0E4CBFAEA906175F0D0831A
:1025C300D0820200EFC082C083EA906172F0E4CB54
:1025D300FAEA906173F0D083D0820200EFC082C028
:1025E300838015E5D9C0E08A828B83D0E0F08A82AC
:1025F3008B83A3AA82AB8319E970E8D083D08202CC
:1026030000EF75E1EC75E1E30200EFC082C0839057
:1026130061A3E0C2E6F0539AFED083D0820200EFBA
:10262300C082C0839061A3E0D2E6F0439A01D083D5
:10263300D0820200EFC082C083A2AFE433F8C2AFFE
:10264300900289EAF0A3EBF0E8F9E8A2E092AFD0B8
:1026530083D0820200EF0200EFC082C0838A828BA4
:10266300831226E9E9F08A828B83E02401FCA3E04C
:102673003400FD8A828B83ECF0A3EDF0D083D0820B
:102683000200EF74F6120CFB74FC120C8B74021232
:102693000CD7EAF0A3EBF0ECFAEDFB740E120CE1AD
:1026A300851082851183E8F0A3E9F0A810A91188A9
:1026B3000889097808120E647404120CE1880889E9
:1026C300097808120E647CEF7D021202D77404129B
:1026D3000CA17402120CD71226E9E4F07404120C54
:1026E300A17F02020D67E0F8A3E0F583888222EE62
:1026F300C0E0E9FA7B00120EA4D0E0FE0200EF7402
:10270300F6120CFB74FE120C8B740C120CE1851088
:1027130082851183E8F0A3E9F0A810A9118808893C
:10272300097808120E64E4F508F5097808120E64B6
:102733007CE37D021202D77404120CA17402120C02
:10274300A17F02020D67EBC313FBEA13FAEAF8EB6E
:10275300F9E824FFFAE934FFFBE8496013000000BD
:10276300000000000000000000000000000080DD09
:102773000200EF74F7120CFBEAFEEBFFEEF8EFF941
:10278300E824FFFEE934FFFFE84960097AE87B03A8
:1027930012025F80E77F01020D6774F6120CFB8C57
:1027A300828D83E070317F02020D67A3E060F70E34
:1027B300EE70010FEC2EF8ED3FF9EA2EF582EB3FB8
:1027C300F583E0F50888828983E0650860DD8A8205
:1027D3008B83A3AA82AB838A828B83E060067E000D
:1027E3007F0080D07A007B0080BC74F6120CFBEA79
:1027F300F8EBF9740A120CD7E0FEA3E0FF80188C03
:10280300828D83E088828983F0A3A882A9838C8246
:102813008D83A3AC82AD838E088F09E50824FF1E48
:10282300E50934FFFFE508450970D47F02020D670F
:1028330074F7120CFBEAF8EBF98005A3AA82AB83C9
:102843008A828B83E070F48C828D83E0FEA3AC825A
:10285300AD838A828B83F0A3AA82AB8370E9E8FA03
:10286300E9FB7F01020D67C082C0838A828B83806C
:1028730001A3E070FCE582C39AFAE5839BFBD08356
:10288300D0820200EFD2AF0200EFC2AF0200EF80AE
:01289300FE46
:04000005000000D720
:00000001FF
